:020000040000FA
:1000000002071EAE07EDD39B4006AF03AB05AD075D
:10001000AC05ECD39B500AAF06AD04120AF90C8074
:02002000F122CB
:070023000207AA4398102216
:07002B00020823759C10225E
:100033000206878F2A8D2BE52B6005752BFF800326
:10004300E4F52B7F80120A9C8F2CE52A04FF120A09
:10005300218F2DE4FF742E2FF8A62B0FBF10F6E48B
:0E006300F53EF53FFB7A00792C7D140209ACC6
:10007300020BB7021300000115000116000217005E
:1000830000C100C103C104C101C10201080001098B
:1000930000010A00010D00020B00006208001400B9
:1000A300000000000000000000000000000000004D
:1000B300000000000000000000000000000000003D
:1000C300000000000000000000000000000000002D
:1000D300000000000000000000000000000000001D
:1000E300000000000000000000000000000000000D
:1000F30000000000000000000000000000000000FD
:1001030000000000000000000000000000000000EC
:1001130000000000000000000000000000000000DC
:1001230000000000000000000000000000000000CC
:1001330000000000000000000000000000000000BC
:1001430000000000000000000000000000000000AC
:10015300000000000000000000000000000000009C
:10016300000000000000000000000000000000008C
:10017300000000000000000000000000000000007C
:10018300000000000000000000000000000000006C
:10019300000000000000000000000000000000005C
:1001A300000000000000000000000000000000004C
:1001B300000000000000000000000000000000003C
:1001C300000000000000000000000000000000002C
:1001D300000000000000000000000000000000001C
:1001E300000000000000000000000000000000000C
:1001F30000000000000000000000000000000000FC
:1002030000000000000000000000000000000000EB
:1002130000000000000000000000000000000000DB
:1002230000000000000000000000000000000000CB
:1002330000000000000000000000000000000000BB
:1002430000000000000000000000000000000000AB
:10025300000000000000000000000000000000009B
:10026300000000000000000000000000000000008B
:10027300000000000000000000000000000000007B
:10028300000000000000000000000000000000006B
:10029300000000000000000000000000000000005B
:1002A30000000000000000020F0000021100000126
:1002B3000E0000BB010689828A83E0225002E722F6
:1002C300BBFE02E32289828A83E49322BB010CE50D
:1002D3008229F582E5833AF583E0225006E92582F7
:1002E300F8E622BBFE06E92582F8E222E58229F53B
:1002F30082E5833AF583E49322BC000BBE0029EF29
:100303008DF084FFADF022E4CCF875F008EF2FFFF9
:10031300EE33FEEC33FCEE9DEC984005FCEE9DFEC7
:100323000FD5F0E9E4CEFD22EDF8F5F0EE8420D20E
:100333001CFEADF075F008EF2FFFED33FD4007987D
:100343005006D5F0F222C398FD0FD5F0EA22C2D5AC
:10035300EC30E709B2D5E4C39DFDE49CFCEE30E745
:1003630015B2D5E4C39FFFE49EFE1202FCC3E49DD5
:10037300FDE49CFC80031202FC30D507C3E49FFF1D
:10038300E49EFE2275F008758200EF2FFFEE33FE28
:10039300CD33CDCC33CCC58233C5829BED9AEC995A
:1003A300E58298400CF582EE9BFEED9AFDEC99FCFC
:1003B3000FD5F0D6E4CEFBE4CDFAE4CCF9A8822243
:1003C300B800C1B90059BA002DEC8BF084CFCECD63
:1003D300FCE5F0CBF97818EF2FFFEE33FEED33FD9C
:1003E300EC33FCEB33FB10D703994004EB99FB0F81
:1003F300D8E5E4F9FA227818EF2FFFEE33FEED3358
:10040300FDEC33FCC933C910D7059BE99A4007ECCF
:100413009BFCE99AF90FD8E0E4C9FAE4CCFB227516
:10042300F010EF2FFFEE33FEED33FDCC33CCC833AA
:10043300C810D7079BEC9AE899400AED9BFDEC9A0C
:10044300FCE899F80FD5F0DAE4CDFBE4CCFAE4C884
:10045300F922EB9FF5F0EA9E42F0E99D42F0E89C19
:1004630045F022E8600FECC313FCED13FDEE13FE21
:10047300EF13FFD8F122EC8EF0A4CCC5F0CCCDF86D
:10048300EFA4CEC5F02DFDE43CFCE8A42EC8C5F0D6
:100493003DFDE43CFCEFA4FFE5F028FEE43DFDE474
:1004A3003CFC22C2051209EDD2B475C802C2A2D225
:1004B300AF120BD7208209300506C205D206800E83
:1004C300208209200506D205D2068002C206300525
:1004D300030205ABE51224FFFFE51134FFFE7C00A8
:1004E3007D14120351EF24F1FDEE34FFFCE4FFFE13
:1004F300120B938F28852827E51224FFFFE511347B
:10050300FFFE7C007D14120351EF2401FDE43EFC49
:10051300E5282410FFE433FE120B80C3E5279FEE8A
:100523006480F8748098508CE4FBE52775F014A47C
:10053300FFEB7C002FFFEC35F0FED3EF9512E511B6
:100543006480F8EE648098400E741C2BF582E434CA
:1005530002F583E4F0802FE52775F014A4FFEB7C0C
:10056300002FFFEC35F0FE7C027D081202FC7414B0
:100573002DF58274003CF583E0FF741C2BF582E4B7
:100583003402F583EFF00BBB15A0C3E5279528755F
:10059300F008A4FD75310175320275331CE4FBFFCD
:1005A30012088205270204FB2005030204B7120B7D
:1005B300587BFF7A0C79307D017F2E120A4D02049D
:1005C300B78F358D368B37AB38AA39A93A1202B6B5
:1005D3007003020686F53BC3648094A04009D3E50B
:1005E3003B648094FE4003753B20E536D39478400A
:1005F30002807CAF3BEF3395E0FE75F064E537A4F2
:100603002FF582E5F03EF583E5822434F582E58318
:10061300340CF583E493F9E536131313541F25358E
:10062300FDF8C000E6FA08E6FBE5365407FCE47E75
:10063300FFA804088005CEC313CE13D8F9F4FFEE48
:10064300F45AFEEB5FD000A60608F6A805C000E644
:10065300FA08E6FBE9FEE4A804088005CEC313CE3E
:1006630013D8F9FFEA4EFEEB4FD000A60608F67446
:1006730001253AF53AE43539F53974062536F53668
:100683000205CA22C0E0C0F0C083C082C0D075D0CA
:1006930000C000C001C002C003C004C005C006C042
:1006A3000775A720E5F854F0F4440F52F8AF9BEF19
:1006B30030E34DE5086031E5A120E02C30011385DE
:1006C3000C82850B83E5A3F0050CE50C7007050B85
:1006D300800385A326D5080D300305300002D2FA26
:1006E300120B6C800385080AE509601430F9113098
:1006F3000209A80DE2F5A3050D800375A3001509F2
:10070300D007D006D005D004D003D002D001D0004A
:10071300D0D0D082D083D0F0D0E032787FE4F6D846
:10072300FD7581600207650204A6E493A3F8E493D0
:10073300A34003F68001F208DFF48029E493A3F8D1
:100743005407240CC8C333C4540F4420C883400443
:10075300F456800146F6DFE4800B01020408102002
:100763004080900076E47E019360BCA3FF543F3049
:10077300E509541FFEE493A360010ECF54C025E0A6
:1007830060A840B8E493A3FAE493A3F8E493A3C85E
:10079300C582C8CAC583CAF0A3C8C582C8CAC583EF
:1007A300CADFE9DEE780BEC0E0C0F0C083C082C01C
:1007B300D075D000C000C004C005C006C007209497
:1007C30004D2948002C294309841C298E510251255
:1007D300FFE50F3511FE7C027D0812035174142DC1
:1007E300F58274003CF583E599F0C3E5129408E5BE
:1007F3001164809482500A0512E51270CA051180B3
:10080300C60510E51070C0050F80BCD007D006D018
:1008130005D004D000D0D0D082D083D0F0D0E03245
:10082300C0E0C0F0C083C082C0D075D000C000C09B
:1008330001C002C003C004C005C006C00753C87F7F
:1008430053C8FBE515B401127515027F0085162503
:100853007B02E4FDFC1208D4800AE515B40305C24B
:10086300A6751500D007D006D005D004D003D0025A
:10087300D001D000D0D0D082D083D0F0D0E0328F5E
:100883002E8D2F8B30E4F5347F5185313885323905
:1008930085333AAB34AD2E1205C4E52F2534FF7BE7
:1008A300007A00795112096A0534E534C39408408B
:1008B300D7E5306017AB31AA32A933120A77E52E98
:1008C3002FFDE52F2408FBAF2E120ADC7F51020B0C
:1008D300F285250885250985250A8F0D8C0B8D0C3E
:1008E300EB139201EBA2E19202AFA775A7202004BC
:1008F30003120BA6439A0453F80F539BEF439A0832
:10090300300305300002C2FA30F915E509601130F1
:100913000209A80DE2F5A3050D8003E4F5A315096B
:100923008FA722C2D5E830E70FB2D5E4C39BFBE41F
:100933009AFAE499F9E498F8EC30E717B2D512097A
:100943005C1203C3E4C39BFBE49AFAE499F9E498C9
:10095300F880031203C330D50DE4C39FFFE49EFE6A
:10096300E49DFDE49CFC228F368B378A3889397FDE
:1009730080120A9C8F3AE53604FF120A218F3BE46A
:10098300FFAB37AA38A9398F827583001202CFFED5
:10099300743C2FF8A6060FBF10E7E4F54CF54DFBAA
:1009A3007A00793A7D140209AC8B4E8A4F8950E55F
:1009B3001570FC7515018D16E4FFEFC39D5018AB40
:1009C3004EAA4FA9508F827583001202CFFE740086
:1009D3002FF8EEF20F80E3AFA7E4F5A775CFFF750D
:1009E300CEF4D2A643C8048FA72285A729120BFEF3
:1009F300120C42120C08120C1212002E120C1C12B2
:100A03000BC7120C50120C39120B42120B13120C9F
:100A130026120BE5120026120C498529A722EF5452
:100A23000FC454F0FEEF54F0C4540F4EFF5433255B
:100A3300E025E0FEEF54CC1313543F4EFF545525ED
:100A4300E0FEEF54AAC3134EFF228F298D2A8B2B6E
:100A53008A2C892D120A77C374809FFFE49400C304
:100A630013EF13FF852B31852C32852D33AB2AAD44
:100A7300290208828B358A368937E4FFAB35AA36DB
:100A8300A937AE070F8E827583001202CF70ED1F58
:100A9300EF75F006A42402FF228F4E120B2CC3EF36
:100AA3009514FDEE9513FCD3ED94C8EC9400400728
:100AB300434E408E138F14AF4E22AB07AA06120B80
:100AC3002C8F828E83120B2CC3EF9582FFEE9583BE
:100AD300FEC3EF9BEE9A40ED228B35AE05AD077F4B
:100AE30051AB061200037B007A007951AF3512092E
:100AF3006A7F51020BF2ED131313541F2FF9ED54B8
:100B030007FF7480A807088002C313D8FC47F722A5
:100B1300E59154045391FB7595F87594067593F814
:100B2300759206439104429122AFA775A71053E62D
:100B33007FAD18AC1743E6808FA7AE04AF0522AF95
:100B4300885388AF758C01758D96EF5440FEEF5432
:100B5300104E428822E4F529E4FDAF291200360540
:100B630029E529C3948040F022751503AFA7E4F566
:100B7300A775CFFF75CEFC43C8048FA722C3EF9D93
:100B8300EC6480F8EE648098500122AE04AF052235
:100B9300D3EF9DEC6480F8EE648098400122AE04AC
:100BA300AF0522E5A1A2E69203E5F8540C24FF92D7
:100BB30000D20422C0E053917F0518E518700205A6
:100BC30017D0E03275BB0D75DF2375BC0875B9818D
:100BD30043E88022C2A6D2B47F0A7E00120ABD0275
:100BE3000B5875A20B43A14053F8F343F80122E4D9
:100BF300FEEF2EF8E4F60EBE10F722E4F5A7759784
:100C0300DE7597AD2275A50175F27F75D5802275C6
:100C1300A64975A72075CC0922E4F5A775E34075AD
:100C2300E10322758E0A75892243885022474F4477
:100C3300204D4F444500E4F5A9E5A930E7FB2275B3
:100C4300A45075D40F2275E68275A8F02275D18061
:100C5300220020505020C0606010400000000000BF
:100C630000702070F810F830F870700000080080F1
:100C7300707070F070E0F8F8708870388880888839
:100C830070F070F078F88888888888F87000702091
:100C930000400080000800300080201080600000C9
:100CA3000000000000400000000000003020600051
:100CB30000000000000020505078C8902020202021
:100CC3002000000000886088103080400888886019
:100CD3006010004088088888889080808888201069
:100CE3009080D88888888888802088888888880821
:100CF3004000105000200080000800487880000069
:100D03008020000000000000004000000000000000
:100D1300402010400000000000002050F88010A088
:100D2300404010A820000000089820082050F080C0
:100D3300108888606020F820080888888088808070
:100D430080882010A080A8C8888888888020888808
:100D53008850881040801088001070B07068704010
:100D630088B060309020D0B070F068B070E08888B0
:100D7300888888F8402010A80000000000002000A8
:100D83005070204000401070F800F80010A82010A8
:100D9300109008F02070780000400010106888F070
:100DA3008088F0F0B8F82010C080A8A888F088F0F8
:100DB30070208888A820502040401000000008C8F8
:100DC300809888E088C82010A020A8C8888898C880
:100DD3008040888888508810802008100000000018
:100DE30000000000F80840A8004010A820600000A0
:100DF30020C8202008F80888408808606020F82070
:100E030020A8F8888088808088882010A08088980F
:100E13008880A8A008208888A8502040402010007F
:100E2300000078888088F84078882010C020A8883F
:100E330088F0788070408888A820782040201000AF
:100E4300000000000000000050F0989000202020D7
:100E530020200060408820408810888840881060E7
:100E63002010004000A8888888908080888820907F
:100E7300908088888880909008208850A888208057
:100E830040101000000088888888804008882090DF
:100E9300A02088888880088008489850A850084077
:100EA30040201000000000000000200050201868BF
:100EB3000010400000400060807070F87010707087
:100EC3004070600040080080207088F070E0F88077
:100ED3007088706088F8888870806888F020702037
:100EE300508820F870087000FC0078F0707870402B
:100EF300708870609070888870800880F0306820F7
:100F0300508870F8302060000000000000000000EE
:100F130000000000000000000000000000000000CE
:100F230000000000000000000000000000000000BE
:100F330000000000000000000000000000000000AE
:100F4300000000000000000000000000000000009E
:100F5300000000000000000000000000000000008E
:100F6300000000000000000000000000000000007E
:100F730000003810387C087C187C38380000443076
:100F8300440818402004444430004C1004102878CE
:100F93004008444430005410080848047810383C92
:100FA3000000641010047C04442044043000441006
:100FB3002044084444204408300038387C3808383A
:100FC300382038300000000000000000000000005E
:100FD300000000000000000000000000000000000E
:100FE30000000000000000000000000000000000FE
:100FF300000000000000000000000000201020405E
:1010030020000000106C8282000000000000FE003F
:10101300000000000082826C1000000022322A26A9
:10102300220000003C0A0A0A3000000022140814BF
:10103300220000003C020C023C00000038040204C1
:10104300380000003E0402023C000000040222FCBF
:1010530020000000042A2A2A120000001020201079
:101063003E0000003E182828100000001028282801
:101073003E0000001C2222221C0000001E20201023
:101083003E0000001E2018203E0000000002FE82E9
:101093000000000000221408FE00000000BC220231
:1010A300040000000002BE22000000001E202010E9
:1010B300FE0000007C4A4A4A300000004080907ED7
:1010C30010000000182A2A2A1C000000FE12222207
:1010D3001C000000042222221C0000001C222212F9
:1010E300FE0000001E2A2A2A04000000002040807F
:1010F30000000000020202020200000020408040C3
:101103002000000000FE828200000000020408109C
:1011130020000000008282FE00000000C2A2928A2A
:1011230086000000E0100E10E0000000C628102822
:10113300C6000000FC021C02FC000000F8040204CC
:10114300F8000000FC020202FC0000008080FE8028
:10115300800000008C92929262000000629498904A
:10116300FE0000007A848A827C00000060909090E8
:10117300FE0000007C8282827C000000FE081020BA
:10118300FE000000FE403040FE00000002020202AA
:10119300FE00000082442810FE00000080FC820252
:1011A300040000000082FE8200000000FE10101008
:1011B300FE0000005C9292827C0000008090909080
:1011C300FE00000082929292FE0000003844828268
:1011D300FE000000448282827C0000006C929292A6
:1011E300FE0000007E8888887E0000007C829E923C
:1011F3000C00000060908A8040000000001028442A
:101203008200000028282828280000008244281093
:101213000000000000006C6A0000000000006C6C1D
:101223000000000078949292600000006C92929209
:101233006C000000C0A0908E800000000C929252BF
:101243003C0000009CA2A2A2E400000008FE482883
:10125300180000008CD2A2828400000062928A8669
:10126300420000000002FE42000000007CA2928ABD
:101273007C000000201008040200000000000606A5
:1012830000000000101010101000000000000C0AF5
:101293000000000010107C101000000028107C10CB
:1012A3002800000000384482000000000082443817
:1012B300000000000000C0A0000000000A44AA9241
:1012C3006C000000462610C8C40000004854D654E1
:1012D3002400000028FE28FE2800000000E000E0B3
:1012E300000000000000F200000000000000000009
:0112F30000FA
:00000001FF
