:020000040000FA
:10000000020382AE07EDD39B4006AF03AB05AD07FD
:10001000AC05ECD39B500AAF06AD041207EE0C8082
:0A002000F1222202040E4398102280
:03002B0002048F3D
:100033000202EB8F288D29E52960057529FF8003CE
:10004300E4F5297F8012073E8F2AE52804FF120674
:10005300ED8F2BE4FF742C2FF8A6290FBF10F6E4C5
:0E006300F53CF53DFB7A00792A7D1402061863
:1000730002089BBB010689828A83E0225002E722A1
:10008300BBFE02E32289828A83E49322BB010CE54F
:100093008229F582E5833AF583E0225006E9258239
:1000A300F8E622BBFE06E92582F8E222E58229F57D
:1000B30082E5833AF583E49322BC000BBE0029EF6B
:1000C3008DF084FFADF022E4CCF875F008EF2FFF3C
:1000D300EE33FEEC33FCEE9DEC984005FCEE9DFE0A
:1000E3000FD5F0E9E4CEFD22EDF8F5F0EE8420D251
:1000F3001CFEADF075F008EF2FFFED33FD400798C0
:100103005006D5F0F222C398FD0FD5F0EA22C2D5EE
:10011300EC30E709B2D5E4C39DFDE49CFCEE30E787
:1001230015B2D5E4C39FFFE49EFE1200BCC3E49D59
:10013300FDE49CFC80031200BC30D507C3E49FFFA1
:10014300E49EFE22E8600FECC313FCED13FDEE13F7
:10015300FEEF13FFD8F12275F008758200EF2FFF31
:10016300EE33FECD33CDCC33CCC58233C5829BED8C
:100173009AEC99E58298400CF582EE9BFEED9AFD90
:10018300EC99FC0FD5F0D6E4CEFBE4CDFAE4CCF940
:10019300A88222B800C1B90059BA002DEC8BF084B3
:1001A300CFCECDFCE5F0CBF97818EF2FFFEE33FE81
:1001B300ED33FDEC33FCEB33FB10D703994004EB39
:1001C30099FB0FD8E5E4F9FA227818EF2FFFEE3305
:1001D300FEED33FDEC33FCC933C910D7059BE99A17
:1001E3004007EC9BFCE99AF90FD8E0E4C9FAE4CCA8
:1001F300FB2275F010EF2FFFEE33FEED33FDCC3312
:10020300CCC833C810D7079BEC9AE899400AED9BFA
:10021300FDEC9AFCE899F80FD5F0DAE4CDFBE4CCD9
:10022300FAE4C8F9228F338D348B35AB36AA37A95C
:100233003812007670030202EAF539C3648094A091
:100243004009D3E539648094FE4003753920E534D1
:10025300D394784002807CAF39EF3395E0FE75F09C
:1002630064E535A42FF582E5F03EF583E58224F7B6
:10027300F582E5833408F583E493F9E53413131326
:10028300541F2533FDF8C000E6FA08E6FBE53454B5
:1002930007FCE47EFFA804088005CEC313CE13D861
:1002A300F9F4FFEEF45AFEEB5FD000A60608F6A8B9
:1002B30005C000E6FA08E6FBE9FEE4A804088005A9
:1002C300CEC313CE13D8F9FFEA4EFEEB4FD000A6F0
:1002D3000608F674012538F538E43537F537740622
:1002E3002534F53402022E22C0E0C0F0C083C08260
:1002F300C0D075D000C000C001C002C003C004C09C
:1003030005C006C00775A720E5F854F0F4440F5262
:10031300F8AF9BEF30E34DE5086031E5A120E02C19
:10032300300113850C82850B83E5A3F0050CE50CE6
:100333007007050B800385A326D5080D3003053010
:100343000002D2FA120876800385080AE5096014D0
:1003530030F911300209A80DE2F5A3050D800375EC
:10036300A3001509D007D006D005D004D003D002CE
:10037300D001D000D0D0D082D083D0F0D0E032787A
:100383007FE4F6D8FD75815E0203C90207D3E493C7
:10039300A3F8E493A34003F68001F208DFF4802975
:1003A300E493A3F85407240CC8C333C4540F442064
:1003B300C8834004F456800146F6DFE4800B010253
:1003C30004081020408090068DE47E019360BCA356
:1003D300FF543F30E509541FFEE493A360010ECFA1
:1003E30054C025E060A840B8E493A3FAE493A3F8CB
:1003F300E493A3C8C582C8CAC583CAF0A3C8C5828B
:10040300C8CAC583CADFE9DEE780BEC0E0C0F0C06A
:1004130083C082C0D075D000C000C004C005C00630
:10042300C007209408D294D295D2968006C294C273
:1004330095C296309841C298E50F2511FFE50E3518
:1004430010FE7C027D0812011174142DF5827400D4
:100453003CF583E599F0C3E5119408E510648094B5
:1004630082500A0511E51170CA051080C6050FE513
:100473000F70C0050E80BCD007D006D005D004D0C5
:1004830000D0D0D082D083D0F0D0E032C0E0C0F032
:10049300C083C082C0D075D000C000C001C002C0FC
:1004A30003C004C005C006C00753C87F53C8FBE59B
:1004B30014B401127514027F008515257B02E4FD37
:1004C300FC120540800AE514B40305C2A6751400A6
:1004D300D007D006D005D004D003D002D001D0007D
:1004E300D0D0D082D083D0F0D0E0328F2C8D2D8B22
:1004F3002EE4F5327F4F852F36853037853138AB83
:1005030032AD2C120228E52D2532FF7B007A0079CB
:100513004F1205D60532E532C3940840D7E52E6065
:1005230017AB2FAA30A931120719E52C2FFDE52DA2
:100533002408FBAF2C12077E7F4F0208C6852508CF
:1005430085250985250A8F0D8C0B8D0CEB139201E4
:10055300EBA2E19202AFA775A72020040312088A39
:10056300439A0453F80F539BEF439A083003053023
:100573000002C2FA30F915E5096011300209A80D2D
:10058300E2F5A3050D8003E4F5A315098FA722C2A5
:10059300D5E830E70FB2D5E4C39BFBE49AFAE499BC
:1005A300F9E498F8EC30E717B2D51205C8120196B2
:1005B300E4C39BFBE49AFAE499F9E498F880031204
:1005C300019630D50DE4C39FFFE49EFEE49DFDE458
:1005D3009CFC228F348B358A3689377F8012073E05
:1005E3008F38E53404FF1206ED8F39E4FFAB35AAEB
:1005F30036A9378F8275830012008FFE743A2FF865
:10060300A6060FBF10E7E4F54AF54BFB7A007938ED
:100613007D140206188B4C8A4D894EE51470FC75C7
:1006230014018D15E4FFEFC39D5018AB4CAA4DA9DF
:100633004E8F8275830012008FFE74002FF8EEF246
:100643000F80E3AFA7E4F5A775CFFF75CEF4D2A66D
:1006530043C8048FA72285A7271208D212090312C1
:1006630008DC1208E61200221208F012090A120826
:10067300FA1208371208081207B712084D1208B900
:1006830012002612079B8527A722021200000114DD
:100693000001150002160000C100C103C104C1011D
:1006A300C102010800010900010A00010D00020B4B
:1006B3000000020E000002100000008F278D288B1F
:1006C300298A2A892B120719C374809FFFE4940097
:1006D300C313EF13FF85292F852A30852B31AB28D0
:1006E300AD271204EE7F4F0208C6EF540FC454F037
:1006F300FEEF54F0C4540F4EFF543325E025E0FEC3
:10070300EF54CC1313543F4EFF545525E0FEEF54E2
:10071300AAC3134EFF228B338A348935E4FFAB33EC
:10072300AA34A935AE070F8E8275830012008F702D
:10073300ED1FEF75F006A42402FF228F4C1208214F
:10074300C3EF9513FDEE9512FCD3ED94C8EC940022
:100753004007434C408E128F13AF4C22AB07AA06BF
:100763001208218F828E83120821C3EF9582FFEE38
:100773009583FEC3EF9BEE9A40ED228B33AE05AD1E
:10078300077F4FAB061200037B007A00794FAF332C
:100793001205D67F4F0208C675E68075A71075BB94
:1007A3008275ED04E4F5A775A8F075B81075A71068
:1007B30075F2102275A710E59854045398FB75A59C
:1007C300FE75A46875A3FE75A26843980442982237
:1007D300120659D2B4C2A2D2AF1208AB7BFF7A0978
:1007E30079117D017F2E1206BE80FEED1313135483
:1007F3001F2FF9ED5407FF7480A807088002C31365
:10080300D8FC47F722E59154045391FB7595F8758D
:1008130094067593F8759206439104429122AFA70B
:1008230075A71053E67FAD17AC1643E6808FA7AECE
:1008330004AF0522AF885388AF758C01758D96EF91
:100843005440FEEF54104E428822E4F5A7758E0AF9
:1008530075A71075A601F5A775892243885022E470
:10086300F527E4FDAF271200360527E527C394805B
:1008730040F022751403AFA7E4F5A775CFFF75CE3B
:10088300FC43C8048FA722E5A1A2E69203E5F8542E
:100893000C24FF9200D20422C0E053917F0517E598
:1008A3001770020516D0E032C2A6D2B47F0A7E00CA
:1008B30012075F02086275A20B43A14053F8F3438A
:1008C300F80122E4FEEF2EF8E4F60EBE10F722E460
:1008D300F5A77597DE7597AD2275A50175F27F753E
:1008E300D5802275A60975A72075CC0922E4F5A742
:1008F30075E34075E10322E4F5A9E5A930E7FB229E
:1009030075A45075D40F2275BC1875B98422486537
:100913006C6C6F000020505020C0606010400000DD
:1009230000000000702070F810F830F870700000BC
:10093300080080707070F070E0F8F8708870388884
:1009430080888870F070F078F88888888888F870D4
:1009530000702000400080000800300080201080DC
:1009630060000000000000004000000000000030B4
:1009730020600000000000000020505078C8902044
:10098300202020200000000088608810308040086C
:1009930088886060100040880888888890808088F4
:1009A3008820109080D888888888888020888888C4
:1009B3008888084000105000200080000800487814
:1009C30080000080200000000000000040000000C4
:1009D300000000402010400000000000002050F8FC
:1009E3008010A0404010A820000000089820082094
:1009F30050F080108888606020F82008088888807C
:100A030088808080882010A080A8C88888888880F3
:100A13002088888850881040801088001070B0703B
:100A230068704088B060309020D0B070F068B070CB
:100A3300E08888888888F8402010A800000000001B
:100A43000020005070204000401070F800F80010A3
:100A5300A82010109008F0207078000040001010BB
:100A63006888F08088F0F0B8F82010C080A8A888C3
:100A7300F088F070208888A82050204040100000A3
:100A83000008C8809888E088C82010A020A8C888DB
:100A93008898C88040888888508810802008100073
:100AA30000000000000000F80840A8004010A82043
:100AB30060000020C8202008F8088840880860608B
:100AC30020F82020A8F8888088808088882010A0BB
:100AD3008088988880A8A008208888A85020404053
:100AE300201000000078888088F84078882010C0A3
:100AF30020A88888F0788070408888A820782040D3
:100B0300201000000000000000000050F09890004A
:100B130020202020200060408820408810888840C2
:100B23008810602010004000A88888889080808802
:100B3300882090908088888880909008208850A88A
:100B43008820804010100000008888888880400832
:100B5300882090A02088888880088008489850A81A
:100B6300500840402010000000000000002000500A
:100B73002018680010400000400060807070F8701A
:100B83001070704070600040080080207088F07022
:100B9300E0F8807088706088F8888870806888F0D2
:100BA300207020508820F870087000FC0078F070E6
:100BB300787040708870609070888870800880F0CA
:100BC300306820508870F83020600000000000007A
:100BD3000000000000000000000000000000000012
:100BE3000000000000000000000000000000000002
:100BF30000000000000000000000000000000000F2
:100C030000000000000000000000000000000000E1
:100C130000000000000000000000000000000000D1
:100C230000000000000000000000000000000000C1
:100C330000000000003810387C087C187C3838002D
:100C4300004430440818402004444430004C10044D
:100C530010287840084444300054100808480478A9
:100C630010383C0000641010047C04442044043019
:100C73000044102044084444204408300038387CA1
:100C83003808383820383000000000000000000029
:100C93000000000000000000000000000000000051
:100CA3000000000000000000000000000000000041
:100CB3000000000000000000000000000000002011
:100CC30010204020000000106C8282000000000011
:100CD30000FE00000000000082826C100000002271
:100CE300322A26220000003C0A0A0A3000000022B1
:100CF300140814220000003C020C023C00000038DF
:100D0300040204380000003E0402023C0000000418
:100D13000222FC20000000042A2A2A1200000010EC
:100D23002020103E0000003E18282810000000106C
:100D33002828283E0000001C2222221C0000001E3E
:100D43002020103E0000001E2018203E000000005E
:100D530002FE820000000000221408FE00000000D2
:100D6300BC2202040000000002BE22000000001E9C
:100D7300202010FE0000007C4A4A4A300000004058
:100D830080907E10000000182A2A2A1C000000FE12
:100D93001222221C000000042222221C0000001C3C
:100DA300222212FE0000001E2A2A2A04000000004C
:100DB3002040800000000002020202020000002026
:100DC3004080402000000000FE82820000000002FC
:100DD30004081020000000008282FE00000000C210
:100DE300A2928A86000000E0100E10E0000000C608
:100DF300281028C6000000FC021C02FC000000F8BA
:100E0300040204F8000000FC020202FC000000805F
:100E130080FE80800000008C92929262000000624B
:100E2300949890FE0000007A848A827C000000601F
:100E3300909090FE0000007C8282827C000000FE85
:100E4300081020FE000000FE403040FE00000002BB
:100E5300020202FE00000082442810FE000000800F
:100E6300FC8202040000000082FE8200000000FEFB
:100E7300101010FE0000005C9292827C0000008043
:100E8300909090FE00000082929292FE0000003843
:100E9300448282FE000000448282827C0000006C57
:100EA300929292FE0000007E8888887E0000007C7B
:100EB300829E920C00000060908A80400000000037
:100EC30010284482000000282828282800000082D7
:100ED3004428100000000000006C6A0000000000BD
:100EE300006C6C0000000078949292600000006C2B
:100EF3009292926C000000C0A0908E800000000CC3
:100F03009292523C0000009CA2A2A2E400000008BE
:100F1300FE4828180000008CD2A2828400000062E0
:100F2300928A86420000000002FE42000000007C1C
:100F3300A2928A7C00000020100804020000000036
:100F43000006060000000010101010100000000042
:100F5300000C0A0000000010107C10100000002894
:100F6300107C1028000000003844820000000000BC
:100F7300824438000000000000C0A0000000000A06
:100F830044AA926C000000462610C8C40000004822
:100F930054D6542400000028FE28FE280000000038
:100FA300E000E0000000000000F20000000000008C
:040FB300000000003A
:00000001FF
