:020000040000FA
:100000000208C1AE07EDD39B4006AF03AB05AD07B9
:10001000AC05ECD39B500AAF06AD04120D660C8004
:02002000F122CB
:0700230002094D4398102271
:07002B000209D0759C1022B0
:1000330002082A8F2C8D2DE52D6005752DFF800379
:10004300E4F52D7F80120D098F2EE52C04FF120C91
:10005300B88F2FE4FF74302FF8A62D0FBF10F6E4EE
:0E006300F540F541FB7A00792E7D14020BB0BA
:10007300020DFE02180000011A00011B00021C0001
:1000830000C100C103C104C101C102011200011377
:10009300000114000117000215000062080014009B
:1000A300000000000000000000000000000000004D
:1000B300000000000000000000000000000000003D
:1000C300000000000000000000000000000000002D
:1000D300000000000000000000000000000000001D
:1000E300000000000000000000000000000000000D
:1000F30000000000000000000000000000000000FD
:1001030000000000000000000000000000000000EC
:1001130000000000000000000000000000000000DC
:1001230000000000000000000000000000000000CC
:1001330000000000000000000000000000000000BC
:1001430000000000000000000000000000000000AC
:10015300000000000000000000000000000000009C
:10016300000000000000000000000000000000008C
:10017300000000000000000000000000000000007C
:10018300000000000000000000000000000000006C
:10019300000000000000000000000000000000005C
:1001A300000000000000000000000000000000004C
:1001B300000000000000000000000000000000003C
:1001C300000000000000000000000000000000002C
:1001D300000000000000000000000000000000001C
:1001E300000000000000000000000000000000000C
:1001F30000000000000000000000000000000000FC
:1002030000000000000000000000000000000000EB
:1002130000000000000000000000000000000000DB
:1002230000000000000000000000000000000000CB
:1002330000000000000000000000000000000000BB
:1002430000000000000000000000000000000000AB
:10025300000000000000000000000000000000009B
:10026300000000000000000000000000000000008B
:10027300000000000000000000000000000000007B
:10028300000000000000000000000000000000006B
:10029300000000000000000000000000000000005B
:1002A3000000000000000050023130313233343599
:1002B30036373839414243444546020A00000210AA
:1002C300000001080001090100BB010689828A833D
:1002D300E0225002E722BBFE02E32289828A83E402
:1002E3009322BB010CE58229F582E5833AF583E08D
:1002F300225006E92582F8E622BBFE06E92582F8AC
:10030300E222E58229F582E5833AF583E49322BC70
:10031300000BBE0029EF8DF084FFADF022E4CCF892
:1003230075F008EF2FFFEE33FEEC33FCEE9DEC98F7
:100333004005FCEE9DFE0FD5F0E9E4CEFD22EDF87D
:10034300F5F0EE8420D21CFEADF075F008EF2FFF20
:10035300ED33FD4007985006D5F0F222C398FD0F08
:10036300D5F0EA22C2D5EC30E709B2D5E4C39DFD4E
:10037300E49CFCEE30E715B2D5E4C39FFFE49EFE98
:10038300120312C3E49DFDE49CFC800312031230AC
:10039300D507C3E49FFFE49EFE2275F00875820033
:1003A300EF2FFFEE33FECD33CDCC33CCC58233C537
:1003B300829BED9AEC99E58298400CF582EE9BFEC8
:1003C300ED9AFDEC99FC0FD5F0D6E4CEFBE4CDFA23
:1003D300E4CCF9A88222B800C1B90059BA002DECC7
:1003E3008BF084CFCECDFCE5F0CBF97818EF2FFF5F
:1003F300EE33FEED33FDEC33FCEB33FB10D7039907
:100403004004EB99FB0FD8E5E4F9FA227818EF2FB3
:10041300FFEE33FEED33FDEC33FCC933C910D705D2
:100423009BE99A4007EC9BFCE99AF90FD8E0E4C9F1
:10043300FAE4CCFB2275F010EF2FFFEE33FEED3321
:10044300FDCC33CCC833C810D7079BEC9AE899404E
:100453000AED9BFDEC9AFCE899F80FD5F0DAE4CDB0
:10046300FBE4CCFAE4C8F922EB9FF5F0EA9E42F0F4
:10047300E99D42F0E89C45F022E8600FECC313FCD1
:10048300ED13FDEE13FEEF13FFD8F122EC8EF0A473
:10049300CCC5F0CCCDF8EFA4CEC5F02DFDE43CFCEB
:1004A300E8A42EC8C5F03DFDE43CFCEFA4FFE5F055
:1004B30028FEE43DFDE43CFC22C205750C01750DEC
:1004C300F4750E00750F14120C26D2B475C802C24F
:1004D300A2D2AF120E1E120BF1120A2F20820BE5CD
:1004E3002A6007300504C205800C208210E52A60CB
:1004F3000C200509D205D206120DC58002C206A240
:1005030082E433F52A3005030205AA7D14120C8B0D
:10051300C3EF9508F529F5287D14120C5AC3E52875
:100523009FEE6480F874809850ACE4F527E5287555
:10053300F014A47C002527FFEC35F0FEC3EF9511E2
:10054300E5106480F8EE648098400F741C2527F54D
:1005530082E43402F583E4F08028E50B2FFFE50AFB
:100563003EFE7C027D0812036774142DF58274002D
:100573003CF583E0FF741C2527F582E43402F58300
:10058300EFF00527E527B414A4C3E528952975F0F2
:1005930008A4FD752E01752F0275301CE4FBFF12B4
:1005A3000A86052802051B2005030204D97D0A12C9
:1005B3000C8BE50825E0FEC3EF9EF529F5287D0A9F
:1005C300120C5AC3E5289FEE6480F87480984003A8
:1005D3000204D9E4F527E52875F00AA47C00252751
:1005E300FFEC35F0FEC3EF9511E5106480F8EE647F
:1005F30080984011E52725E0241CF582E43402F5B8
:1006030083E4F0806AE52875F00AA47C002527FFBF
:10061300EC35F0FEE50B2FFFE50A3EFE7C027D087C
:1006230012036774142DF58274003CF583E0FF54C4
:10063300F0C4540FFEEF540FFF74312EF582E434EF
:1006430002F583E0FEE52725E0241CF582E434026D
:10065300F583EEF074312FF582E43402F583E0FF85
:10066300E52725E0241DF582E43402F583EFF00548
:1006730027E527640A60030205D9C3E52895297590
:10068300F008A4FD752E01752F0275301CE4FBFFE5
:10069300120A8605280205C18F2E8E2D8D2C8C2BD8
:1006A300E47F99FEFDFCAB2EAA2DA92CA82BD31217
:1006B300046B5006752F01020764E47F797E0AFDFF
:1006C300FCAB2EAA2DA92CA82BC312046B4014E457
:1006D3007FA57E0BFDFCA82BD312046B5005752F51
:1006E30002807EE47F4F7E09FDFCAB2EAA2DA92C50
:1006F300A82BC312046B4014E47F7B7E0AFDFCA885
:100703002BD312046B5005752F038055E47FDC7ED9
:1007130005FDFCAB2EAA2DA92CA82BC312046B40FC
:1007230014E47F087E07FDFCA82BD312046B50054D
:10073300752F04802CE47F267E07FDFCAB2EAA2DAB
:10074300A92CA82BC312046B4014E47F527E08FD2E
:10075300FCA82BD312046B5005752F058003E4F519
:100763002FAF2F228F328D338B34AB35AA36A93777
:100773001202CC7003020829F538C3648094A040A8
:1007830009D3E538648094FE4003753820E533D3FC
:1007930094784002807CAF38EF3395E0FE75F064C7
:1007A300E534A42FF582E5F03EF583E5822472F566
:1007B30082E583340EF583E493F9E533131313547D
:1007C3001F2532FDF8C000E6FA08E6FBE5335407BF
:1007D300FCE47EFFA804088005CEC313CE13D8F92A
:1007E300F4FFEEF45AFEEB5FD000A60608F6A80568
:1007F300C000E6FA08E6FBE9FEE4A804088005CE9B
:10080300C313CE13D8F9FFEA4EFEEB4FD000A60672
:1008130008F674012537F537E43536F536740625C1
:1008230033F53302076D22C0E0C0F0C083C082C03D
:10083300D075D000C000C001C002C003C004C00511
:10084300C006C00775A720E5F854F0F4440F52F82A
:10085300AF9BEF30E34DE5126031E5A120E02C3092
:100863000113851682851583E5A3F00516E5167039
:10087300070515800385A326D5120D300305300027
:1008830002D2FA120DD98003851214E513601430D5
:10089300F911300209A817E2F5A30517800375A320
:1008A300001513D007D006D005D004D003D002D052
:1008B30001D000D0D0D082D083D0F0D0E032787F86
:1008C300E4F6D8FD75815D0209080204BCE493A334
:1008D300F8E493A34003F68001F208DFF48029E4EF
:1008E30093A3F85407240CC8C333C4540F4420C83B
:1008F300834004F456800146F6DFE4800B010204D2
:100903000810204080900076E47E019360BCA3FF32
:10091300543F30E509541FFEE493A360010ECF5406
:10092300C025E060A840B8E493A3FAE493A3F8E4F5
:1009330093A3C8C582C8CAC583CAF0A3C8C582C861
:10094300CAC583CADFE9DEE780BEC0E0C0F0C0836A
:10095300C082C0D075D000C000C004C005C006C0AE
:1009630007209404D2948002C29430984BC298E535
:100973000B2511FFE50A3510FE7C027D0812036783
:1009830074142DF58274003CF583E599F0C3E511E9
:100993009407E51064809482500A0511E51170CA2A
:1009A300051080C6E50F250BF50BE50E350AF50A94
:1009B300850C10850D1180B2D007D006D005D00468
:1009C300D000D0D0D082D083D0F0D0E032C0E0C00D
:1009D300F0C083C082C0D075D000C000C001C00287
:1009E300C003C004C005C006C00753C87F53C8FB7B
:1009F300E51AB40112751A027F00851B257B02E4F8
:100A0300FDFC120AD8800AE51AB40305C2A6751ABA
:100A130000D007D006D005D004D003D002D001D037
:100A230000D0D0D082D083D0F0D0E032BF020AE52C
:100A33000960060508C2968011BF040AE50960062D
:100A4300C29615088004D296D295EF7F0070027F7C
:100A5300018F09E51124FFFFE51034FFFE7C007DC3
:100A630014120367EF24F1FDEE34FFFCAF08EF33FC
:100A730095E0FE120C78AC06AD07E4FFFE120CA560
:100A83008F08228F2B8D2C8B2DE4F5317F4E852EF5
:100A930035852F36853037AB31AD2B120767E52C03
:100AA3002531FF7B007A00794E120B6E0531E5315B
:100AB300C3940840D7E52D6017AB2EAA2FA9301297
:100AC3000CE4E52B2FFDE52C2408FBAF2B120D497D
:100AD3007F4E020E398525128525138525148F1720
:100AE3008C158D16EB139201EBA2E19202AFA77561
:100AF300A720200403120DED439A0453F80F539BD0
:100B0300EF439A08300305300002C2FA30F915E5C5
:100B1300136011300209A817E2F5A305178003E457
:100B2300F5A315138FA722C2D5E830E70FB2D5E49A
:100B3300C39BFBE49AFAE499F9E498F8EC30E717DD
:100B4300B2D5120B601203D9E4C39BFBE49AFAE417
:100B530099F9E498F880031203D930D50DE4C39FC3
:100B6300FFE49EFEE49DFDE49CFC228F338B348ADC
:100B73003589367F80120D098F37E53304FF120C58
:100B8300B88F38E4FFAB34AA35A9368F827583005A
:100B93001202E5FE74392FF8A6060FBF10E7E4F53D
:100BA30049F54AFB7A0079377D14020BB08B4B8AE7
:100BB3004C894DE51A70FC751A018D1BE4FFEFC3D8
:100BC3009D5018AB4BAA4CA94D8F8275830012021E
:100BD300E5FE74002FF8EEF20F80E3AFA7E4F5A76C
:100BE30075CFFF75CEF4D2A643C8048FA722D2ECEB
:100BF30030EDFDC2EDAFBDAEBE7C0C7DE412048FC3
:100C0300E4FB7A04F9F81203D9E47B04FAF9F81245
:100C130003D9EF2401FFE43EFEE43DFDE43CFC1276
:100C2300069B2285A72B120E45120E80120E4F1221
:100C33000E5912002E120E63120E0E120E8E120E8B
:100C430077120DAF120D80120E6D120E2C120026AC
:100C5300120E87852BA722E51124FFFFE51034FF31
:100C6300FE7C00120367EF2401FDE43EFCE529242A
:100C730010FFE433FEC3EF9DEC6480F8EE648098CC
:100C8300500122AE04AF0522E51124FFFFE5103425
:100C9300FFFE7C00120367EF24F1FDEE34FFFCE45A
:100CA300FFFED3EF9DEC6480F8EE64809840012250
:100CB300AE04AF0522EF540FC454F0FEEF54F0C45A
:100CC300540F4EFF543325E025E0FEEF54CC1313AD
:100CD300543F4EFF545525E0FEEF54AAC3134EFF75
:100CE300228B328A338934E4FFAB32AA33A934AE80
:100CF300070F8E827583001202E570ED1FEF75F00A
:100D030006A42402FF228F4B120D99C3EF9519FD00
:100D1300EE9518FCD3ED94C8EC94004007434B4088
:100D23008E188F19AF4B22AB07AA06120D998F822B
:100D33008E83120D99C3EF9582FFEE9583FEC3EF69
:100D43009BEE9A40ED228B32AE05AD077F4EAB068C
:100D53001200037B007A00794EAF32120B6E7F4E86
:100D6300020E39ED131313541F2FF9ED5407FF74BB
:100D730080A807088002C313D8FC47F722E59154E3
:100D8300045391FB7595F87594067593F87592065F
:100D9300439104429122AFA775A71053E67FAD1D7F
:100DA300AC1C43E6808FA7AE04AF0522AF885388FF
:100DB300AF758C01758D96EF5440FEEF54104E4283
:100DC3008822E4F52BE4FDAF2B120036052BE52B2F
:100DD300C3948040F022751A03AFA7E4F5A775CF3B
:100DE300FF75CEFC43C8048FA722E5A1A2E69203B8
:100DF300E5F8540C24FF9200D20422C0E053917F03
:100E0300051DE51D7002051CD0E03275BB0D75DFB5
:100E13002375BC0875B98143E88022C2A6D2B47F8A
:100E23000A7E00120D2A020DC575A20B43A1405381
:100E3300F8F343F80122E4FEEF2EF8E4F60EBE10B9
:100E4300F722E4F5A77597DE7597AD2275A50175B1
:100E5300F27F75D5802275A64975A72075CC092226
:100E6300E4F5A775E34075E10322758E0A758922BF
:100E730043885022E4F5A9E5A930E7FB2275A45085
:100E830075D40F2275E68275A8F02275D1802200F1
:100E930020505020C060601040000000000000702F
:100EA3002070F810F830F87070000008008070703F
:100EB30070F070E0F8F8708870388880888870F077
:100EC30070F078F88888888888F87000702000406F
:100ED30000800008003000802010806000000000C7
:100EE300000000400000000000003020600000000F
:100EF3000000000020505078C890202020202000BF
:100F03000000008860881030804008888860601086
:100F13000040880888888890808088882010908086
:100F2300D8888888888880208888888888084000AE
:100F330010500020008000080048788000008020C6
:100F430000000000000000400000000000004020FE
:100F530010400000000000002050F88010A0404026
:100F630010A820000000089820082050F080108866
:100F730088606020F82008088888808880808088BE
:100F83002010A080A8C888888888802088888850F6
:100F9300881040801088001070B07068704088B06E
:100FA30060309020D0B070F068B070E08888888896
:100FB30088F8402010A800000000000020005070B6
:100FC300204000401070F800F80010A82010109086
:100FD30008F02070780000400010106888F08088C6
:100FE300F0F0B8F82010C080A8A888F088F070202E
:100FF3008888A820502040401000000008C880982E
:1010030088E088C82010A020A8C8888898C8804095
:101013008888885088108020081000000000000095
:101023000000F80840A8004010A82060000020C875
:10103300202008F80888408808606020F82020A84D
:10104300F8888088808088882010A080889888808D
:10105300A8A008208888A850204040201000000045
:1010630078888088F84078882010C020A88888F085
:10107300788070408888A8207820402010000000E5
:1010830000000000000050F0989000202020202055
:1010930000604088204088108888408810602010B5
:1010A300004000A88888889080808888209090805D
:1010B30088888880909008208850A88820804010D5
:1010C3001000000088888888804008882090A0202D
:1010D30088888880088008489850A8500840402095
:1010E30010000000000000002000502018680010CD
:1010F300400000400060807070F8701070704070A5
:10110300600040080080207088F070E0F8807088EC
:10111300706088F8888870806888F0207020508814
:1011230020F870087000FC0078F0707870407088C8
:1011330070609070888870800880F03068205088D4
:1011430070F8302060000000000000000000000084
:10115300000000000000000000000000000000008C
:10116300000000000000000000000000000000007C
:10117300000000000000000000000000000000006C
:10118300000000000000000000000000000000005C
:10119300000000000000000000000000000000004C
:1011A300000000000000000000000000000000003C
:1011B3003810387C087C187C3838000044304408E8
:1011C30018402004444430004C1004102878400890
:1011D300444430005410080848047810383C000098
:1011E300641010047C044420440430004410204460
:1011F300084444204408300038387C380838382004
:101203003830000000000000000000000000000073
:1012130000000000000000000000000000000000CB
:1012230000000000000000000000000000000000BB
:1012330000000000000000000000201020402000FB
:101243000000106C8282000000000000FE0000001D
:1012530000000082826C1000000022322A26220045
:1012630000003C0A0A0A300000002214081422007D
:1012730000003C020C023C00000038040204380069
:1012830000003E0402023C000000040222FC200095
:101293000000042A2A2A12000000102020103E0019
:1012A30000003E18282810000000102828283E00BF
:1012B30000001C2222221C0000001E2020103E00E1
:1012C30000001E2018203E0000000002FE820000E5
:1012D300000000221408FE00000000BC22020400EB
:1012E30000000002BE22000000001E202010FE00AD
:1012F30000007C4A4A4A300000004080907E100083
:101303000000182A2A2A1C000000FE1222221C00B8
:101313000000042222221C0000001C222212FE00D4
:1013230000001E2A2A2A040000000020408000003A
:101333000000020202020200000020408040200060
:10134300000000FE8282000000000204081020005A
:101353000000008282FE00000000C2A2928A860082
:101363000000E0100E10E0000000C6281028C600A0
:101373000000FC021C02FC000000F8040204F80058
:101383000000FC020202FC0000008080FE8080005E
:1013930000008C9292926200000062949890FE008A
:1013A30000007A848A827C00000060909090FE00A6
:1013B30000007C8282827C000000FE081020FE0078
:1013C3000000FE403040FE00000002020202FE0068
:1013D300000082442810FE00000080FC820204000A
:1013E30000000082FE8200000000FE101010FE00CC
:1013F30000005C9292827C00000080909090FE003E
:10140300000082929292FE00000038448282FE0025
:101413000000448282827C0000006C929292FE0063
:1014230000007E8888887E0000007C829E920C00EB
:10143300000060908A804000000000102844820071
:1014430000002828282828000000824428100000D3
:10145300000000006C6A0000000000006C6C0000DB
:10146300000078949292600000006C9292926C005B
:101473000000C0A0908E800000000C9292523C00AD
:1014830000009CA2A2A2E400000008FE4828180065
:1014930000008CD2A2828400000062928A864200FD
:1014A30000000002FE42000000007CA2928A7C0041
:1014B30000002010080402000000000006060000DF
:1014C3000000101010101000000000000C0A0000B3
:1014D300000010107C101000000028107C10280061
:1014E30000000038448200000000008244380000FD
:1014F30000000000C0A0000000000A44AA926C0093
:101503000000462610C8C40000004854D6542400E6
:10151300000028FE28FE2800000000E000E0000094
:0F15230000000000F200000000000000000000C7
:00000001FF
