:020000040000FA
:10000000020382AE07EDD39B4006AF03AB05AD07FD
:10001000AC05ECD39B500AAF06AD041207B10C80BF
:02002000F122CB
:0700230002040E43981022B5
:07002B0002048F759C1022F6
:100033000202EB8F288D29E52960057529FF8003CE
:10004300E4F5297F801207368F2AE52804FF12067C
:10005300BB8F2BE4FF742C2FF8A6290FBF10F6E4F7
:0E006300F53CF53DFB7A00792A7D1402061863
:10007300020849BB010689828A83E0225002E722F3
:10008300BBFE02E32289828A83E49322BB010CE54F
:100093008229F582E5833AF583E0225006E9258239
:1000A300F8E622BBFE06E92582F8E222E58229F57D
:1000B30082E5833AF583E49322BC000BBE0029EF6B
:1000C3008DF084FFADF022E4CCF875F008EF2FFF3C
:1000D300EE33FEEC33FCEE9DEC984005FCEE9DFE0A
:1000E3000FD5F0E9E4CEFD22EDF8F5F0EE8420D251
:1000F3001CFEADF075F008EF2FFFED33FD400798C0
:100103005006D5F0F222C398FD0FD5F0EA22C2D5EE
:10011300EC30E709B2D5E4C39DFDE49CFCEE30E787
:1001230015B2D5E4C39FFFE49EFE1200BCC3E49D59
:10013300FDE49CFC80031200BC30D507C3E49FFFA1
:10014300E49EFE22E8600FECC313FCED13FDEE13F7
:10015300FEEF13FFD8F12275F008758200EF2FFF31
:10016300EE33FECD33CDCC33CCC58233C5829BED8C
:100173009AEC99E58298400CF582EE9BFEED9AFD90
:10018300EC99FC0FD5F0D6E4CEFBE4CDFAE4CCF940
:10019300A88222B800C1B90059BA002DEC8BF084B3
:1001A300CFCECDFCE5F0CBF97818EF2FFFEE33FE81
:1001B300ED33FDEC33FCEB33FB10D703994004EB39
:1001C30099FB0FD8E5E4F9FA227818EF2FFFEE3305
:1001D300FEED33FDEC33FCC933C910D7059BE99A17
:1001E3004007EC9BFCE99AF90FD8E0E4C9FAE4CCA8
:1001F300FB2275F010EF2FFFEE33FEED33FDCC3312
:10020300CCC833C810D7079BEC9AE899400AED9BFA
:10021300FDEC9AFCE899F80FD5F0DAE4CDFBE4CCD9
:10022300FAE4C8F9228F338D348B35AB36AA37A95C
:100233003812007670030202EAF539C3648094A091
:100243004009D3E539648094FE4003753920E534D1
:10025300D394784002807CAF39EF3395E0FE75F09C
:1002630064E535A42FF582E5F03EF583E58224B7F6
:10027300F582E5833408F583E493F9E53413131326
:10028300541F2533FDF8C000E6FA08E6FBE53454B5
:1002930007FCE47EFFA804088005CEC313CE13D861
:1002A300F9F4FFEEF45AFEEB5FD000A60608F6A8B9
:1002B30005C000E6FA08E6FBE9FEE4A804088005A9
:1002C300CEC313CE13D8F9FFEA4EFEEB4FD000A6F0
:1002D3000608F674012538F538E43537F537740622
:1002E3002534F53402022E22C0E0C0F0C083C08260
:1002F300C0D075D000C000C001C002C003C004C09C
:1003030005C006C00775A720E5F854F0F4440F5262
:10031300F8AF9BEF30E34DE5086031E5A120E02C19
:10032300300113850C82850B83E5A3F0050CE50CE6
:100333007007050B800385A326D5080D3003053010
:100343000002D2FA120824800385080AE509601422
:1003530030F911300209A80DE2F5A3050D800375EC
:10036300A3001509D007D006D005D004D003D002CE
:10037300D001D000D0D0D082D083D0F0D0E032787A
:100383007FE4F6D8FD75815E0203C9020776E49324
:10039300A3F8E493A34003F68001F208DFF4802975
:1003A300E493A3F85407240CC8C333C4540F442064
:1003B300C8834004F456800146F6DFE4800B010253
:1003C300040810204080900659E47E019360BCA38A
:1003D300FF543F30E509541FFEE493A360010ECFA1
:1003E30054C025E060A840B8E493A3FAE493A3F8CB
:1003F300E493A3C8C582C8CAC583CAF0A3C8C5828B
:10040300C8CAC583CADFE9DEE780BEC0E0C0F0C06A
:1004130083C082C0D075D000C000C004C005C00630
:10042300C007209408D294D295D2968006C294C273
:1004330095C296309841C298E50F2511FFE50E3518
:1004430010FE7C027D0812011174142DF5827400D4
:100453003CF583E599F0C3E5119408E510648094B5
:1004630082500A0511E51170CA051080C6050FE513
:100473000F70C0050E80BCD007D006D005D004D0C5
:1004830000D0D0D082D083D0F0D0E032C0E0C0F032
:10049300C083C082C0D075D000C000C001C002C0FC
:1004A30003C004C005C006C00753C87F53C8FBE59B
:1004B30014B401127514027F008515257B02E4FD37
:1004C300FC120540800AE514B40305C2A6751400A6
:1004D300D007D006D005D004D003D002D001D0007D
:1004E300D0D0D082D083D0F0D0E0328F2C8D2D8B22
:1004F3002EE4F5327F4F852F36853037853138AB83
:1005030032AD2C120228E52D2532FF7B007A0079CB
:100513004F1205D60532E532C3940840D7E52E6065
:1005230017AB2FAA30A931120711E52C2FFDE52DAA
:100533002408FBAF2C1207947F4F0208748525080B
:1005430085250985250A8F0D8C0B8D0CEB139201E4
:10055300EBA2E19202AFA775A7202004031208388B
:10056300439A0453F80F539BEF439A083003053023
:100573000002C2FA30F915E5096011300209A80D2D
:10058300E2F5A3050D8003E4F5A315098FA722C2A5
:10059300D5E830E70FB2D5E4C39BFBE49AFAE499BC
:1005A300F9E498F8EC30E717B2D51205C8120196B2
:1005B300E4C39BFBE49AFAE499F9E498F880031204
:1005C300019630D50DE4C39FFFE49EFEE49DFDE458
:1005D3009CFC228F348B358A3689377F801207360D
:1005E3008F38E53404FF1206BB8F39E4FFAB35AA1D
:1005F30036A9378F8275830012008FFE743A2FF865
:10060300A6060FBF10E7E4F54AF54BFB7A007938ED
:100613007D140206188B4C8A4D894EE51470FC75C7
:1006230014018D15E4FFEFC39D5018AB4CAA4DA9DF
:100633004E8F8275830012008FFE74002FF8EEF246
:100643000F80E3AFA7E4F5A775CFFF75CEF4D2A66D
:1006530043C8048FA72202120000011400011500F1
:1006630002160000C100C103C104C101C102010897
:1006730000010900010A00010D00020B0000020E37
:100683000000021000000085A7271208801208C28C
:1006930012088A12089412002E12089E1208D01211
:1006A30008B21207FA1207CB1208A8120867120041
:1006B300261208C98527A722EF540FC454F0FEEF72
:1006C30054F0C4540F4EFF543325E025E0FEEF549D
:1006D300CC1313543F4EFF545525E0FEEF54AAC3E9
:1006E300134EFF228F278D288B298A2A892B1207E5
:1006F30011C374809FFFE49400C313EF13FF852994
:100703002F852A30852B31AB28AD270204EE8B339E
:100713008A348935E4FFAB33AA34A935AE070F8E8B
:100723008275830012008F70ED1FEF75F006A4240D
:1007330002FF228F4C1207E4C3EF9513FDEE9512CF
:10074300FCD3ED94C8EC94004007434C408E128FC9
:1007530013AF4C22AB07AA061207E48F828E8312D3
:1007630007E4C3EF9582FFEE9583FEC3EF9BEE9AFA
:1007730040ED2212068AD2B475C802C2A2D2AF12C9
:1007830008597BFF7A0879BB7D017F2E1206E7802B
:10079300FE8B33AE05AD077F4FAB061200037B0024
:1007A3007A00794FAF331205D67F4F020874ED13E9
:1007B3001313541F2FF9ED5407FF7480A807088003
:1007C30002C313D8FC47F722E59154045391FB75F8
:1007D30095F87594067593F87592064391044291C2
:1007E30022AFA775A71053E67FAD17AC1643E6807B
:1007F3008FA7AE04AF0522AF885388AF758C017500
:100803008D96EF5440FEEF54104E428822E4F527B4
:10081300E4FDAF271200360527E527C3948040F097
:1008230022751403AFA7E4F5A775CFFF75CEFC437C
:10083300C8048FA722E5A1A2E69203E5F8540C248D
:10084300FF9200D20422C0E053917F0517E5177091
:10085300020516D0E032C2A6D2B47F0A7E00120788
:100863005702081075A20B43A14053F8F343F80154
:1008730022E4FEEF2EF8E4F60EBE10F722E4F5A70D
:100883007597DE7597AD2275A50175F27F75D580D5
:100893002275A60975A72075CC0922E4F5A775E38F
:1008A3004075E10322758E0A75892243885022E43C
:1008B300F5A9E5A930E7FB22464D4C202F6E0075C4
:1008C300A45075D40F2275E68075A8F02275BC1864
:1008D30075B984220020505020C060601040000091
:1008E30000000000702070F810F830F870700000FD
:1008F300080080707070F070E0F8F87088703888C5
:1009030080888870F070F078F88888888888F87014
:10091300007020004000800008003000802010801C
:1009230060000000000000004000000000000030F4
:1009330020600000000000000020505078C8902084
:1009430020202020000000008860881030804008AC
:100953008888606010004088088888889080808834
:100963008820109080D88888888888802088888804
:100973008888084000105000200080000800487854
:100983008000008020000000000000004000000004
:10099300000000402010400000000000002050F83C
:1009A3008010A0404010A8200000000898200820D4
:1009B30050F080108888606020F8200808888880BC
:1009C30088808080882010A080A8C8888888888034
:1009D3002088888850881040801088001070B0707C
:1009E30068704088B060309020D0B070F068B0700C
:1009F300E08888888888F8402010A800000000005C
:100A03000020005070204000401070F800F80010E3
:100A1300A82010109008F0207078000040001010FB
:100A23006888F08088F0F0B8F82010C080A8A88803
:100A3300F088F070208888A82050204040100000E3
:100A43000008C8809888E088C82010A020A8C8881B
:100A53008898C880408888885088108020081000B3
:100A630000000000000000F80840A8004010A82083
:100A730060000020C8202008F808884088086060CB
:100A830020F82020A8F8888088808088882010A0FB
:100A93008088988880A8A008208888A85020404093
:100AA300201000000078888088F84078882010C0E3
:100AB30020A88888F0788070408888A82078204013
:100AC300201000000000000000000050F09890008B
:100AD3002020202020006040882040881088884003
:100AE3008810602010004000A88888889080808843
:100AF300882090908088888880909008208850A8CB
:100B03008820804010100000008888888880400872
:100B1300882090A02088888880088008489850A85A
:100B2300500840402010000000000000002000504A
:100B33002018680010400000400060807070F8705A
:100B43001070704070600040080080207088F07062
:100B5300E0F8807088706088F8888870806888F012
:100B6300207020508820F870087000FC0078F07026
:100B7300787040708870609070888870800880F00A
:100B8300306820508870F8302060000000000000BA
:100B93000000000000000000000000000000000052
:100BA3000000000000000000000000000000000042
:100BB3000000000000000000000000000000000032
:100BC3000000000000000000000000000000000022
:100BD3000000000000000000000000000000000012
:100BE3000000000000000000000000000000000002
:100BF30000000000003810387C087C187C3838006E
:100C0300004430440818402004444430004C10048D
:100C130010287840084444300054100808480478E9
:100C230010383C0000641010047C04442044043059
:100C33000044102044084444204408300038387CE1
:100C43003808383820383000000000000000000069
:100C53000000000000000000000000000000000091
:100C63000000000000000000000000000000000081
:100C73000000000000000000000000000000002051
:100C830010204020000000106C8282000000000051
:100C930000FE00000000000082826C1000000022B1
:100CA300322A26220000003C0A0A0A3000000022F1
:100CB300140814220000003C020C023C000000381F
:100CC300040204380000003E0402023C0000000459
:100CD3000222FC20000000042A2A2A12000000102D
:100CE3002020103E0000003E1828281000000010AD
:100CF3002828283E0000001C2222221C0000001E7F
:100D03002020103E0000001E2018203E000000009E
:100D130002FE820000000000221408FE0000000012
:100D2300BC2202040000000002BE22000000001EDC
:100D3300202010FE0000007C4A4A4A300000004098
:100D430080907E10000000182A2A2A1C000000FE52
:100D53001222221C000000042222221C0000001C7C
:100D6300222212FE0000001E2A2A2A04000000008C
:100D73002040800000000002020202020000002066
:100D83004080402000000000FE828200000000023C
:100D930004081020000000008282FE00000000C250
:100DA300A2928A86000000E0100E10E0000000C648
:100DB300281028C6000000FC021C02FC000000F8FA
:100DC300040204F8000000FC020202FC00000080A0
:100DD30080FE80800000008C92929262000000628C
:100DE300949890FE0000007A848A827C0000006060
:100DF300909090FE0000007C8282827C000000FEC6
:100E0300081020FE000000FE403040FE00000002FB
:100E1300020202FE00000082442810FE000000804F
:100E2300FC8202040000000082FE8200000000FE3B
:100E3300101010FE0000005C9292827C0000008083
:100E4300909090FE00000082929292FE0000003883
:100E5300448282FE000000448282827C0000006C97
:100E6300929292FE0000007E8888887E0000007CBB
:100E7300829E920C00000060908A80400000000077
:100E83001028448200000028282828280000008217
:100E93004428100000000000006C6A0000000000FD
:100EA300006C6C0000000078949292600000006C6B
:100EB3009292926C000000C0A0908E800000000C03
:100EC3009292523C0000009CA2A2A2E400000008FF
:100ED300FE4828180000008CD2A282840000006221
:100EE300928A86420000000002FE42000000007C5D
:100EF300A2928A7C00000020100804020000000077
:100F03000006060000000010101010100000000082
:100F1300000C0A0000000010107C101000000028D4
:100F2300107C1028000000003844820000000000FC
:100F3300824438000000000000C0A0000000000A46
:100F430044AA926C000000462610C8C40000004862
:100F530054D6542400000028FE28FE280000000078
:100F6300E000E0000000000000F2000000000000CC
:040F7300000000007A
:00000001FF
