:020000040000FA
:100000000207FAAE07EDD39B4006AF03AB05AD0781
:10001000AC05ECD39B500AAF06AD04120C6B0C8000
:02002000F122CB
:070023000208864398102239
:07002B00020909759C102277
:100033000207638F2A8D2BE52B6005752BFF800349
:10004300E4F52B7F80120C0E8F2CE52A04FF120B94
:10005300938F2DE4FF742E2FF8A62B0FBF10F6E419
:0E006300F53EF53FFB7A00792C7D14020AE988
:10007300020D2902180000011A00011B00021C00D6
:1000830000C100C103C104C101C102011200011377
:10009300000114000117000215000062080014009B
:1000A300000000000000000000000000000000004D
:1000B300000000000000000000000000000000003D
:1000C300000000000000000000000000000000002D
:1000D300000000000000000000000000000000001D
:1000E300000000000000000000000000000000000D
:1000F30000000000000000000000000000000000FD
:1001030000000000000000000000000000000000EC
:1001130000000000000000000000000000000000DC
:1001230000000000000000000000000000000000CC
:1001330000000000000000000000000000000000BC
:1001430000000000000000000000000000000000AC
:10015300000000000000000000000000000000009C
:10016300000000000000000000000000000000008C
:10017300000000000000000000000000000000007C
:10018300000000000000000000000000000000006C
:10019300000000000000000000000000000000005C
:1001A300000000000000000000000000000000004C
:1001B300000000000000000000000000000000003C
:1001C300000000000000000000000000000000002C
:1001D300000000000000000000000000000000001C
:1001E300000000000000000000000000000000000C
:1001F30000000000000000000000000000000000FC
:1002030000000000000000000000000000000000EB
:1002130000000000000000000000000000000000DB
:1002230000000000000000000000000000000000CB
:1002330000000000000000000000000000000000BB
:1002430000000000000000000000000000000000AB
:10025300000000000000000000000000000000009B
:10026300000000000000000000000000000000008B
:10027300000000000000000000000000000000007B
:10028300000000000000000000000000000000006B
:10029300000000000000000000000000000000005B
:1002A30000000000000000020A000002100000012C
:1002B300080001090100BB010689828A83E02250FC
:1002C30002E722BBFE02E32289828A83E49322BBF4
:1002D300010CE58229F582E5833AF583E022500695
:1002E300E92582F8E622BBFE06E92582F8E222E54B
:1002F3008229F582E5833AF583E49322BC000BBEA1
:100303000029EF8DF084FFADF022E4CCF875F008FE
:10031300EF2FFFEE33FEEC33FCEE9DEC984005FC33
:10032300EE9DFE0FD5F0E9E4CEFD22EDF8F5F0EEFB
:100333008420D21CFEADF075F008EF2FFFED33FDE6
:100343004007985006D5F0F222C398FD0FD5F0EA86
:1003530022C2D5EC30E709B2D5E4C39DFDE49CFC91
:10036300EE30E715B2D5E4C39FFFE49EFE1202FF11
:10037300C3E49DFDE49CFC80031202FF30D507C358
:10038300E49FFFE49EFE2275F008758200EF2FFFC5
:10039300EE33FECD33CDCC33CCC58233C5829BED5A
:1003A3009AEC99E58298400CF582EE9BFEED9AFD5E
:1003B300EC99FC0FD5F0D6E4CEFBE4CDFAE4CCF90E
:1003C300A88222B800C1B90059BA002DEC8BF08481
:1003D300CFCECDFCE5F0CBF97818EF2FFFEE33FE4F
:1003E300ED33FDEC33FCEB33FB10D703994004EB07
:1003F30099FB0FD8E5E4F9FA227818EF2FFFEE33D3
:10040300FEED33FDEC33FCC933C910D7059BE99AE4
:100413004007EC9BFCE99AF90FD8E0E4C9FAE4CC75
:10042300FB2275F010EF2FFFEE33FEED33FDCC33DF
:10043300CCC833C810D7079BEC9AE899400AED9BC8
:10044300FDEC9AFCE899F80FD5F0DAE4CDFBE4CCA7
:10045300FAE4C8F922EB9FF5F0EA9E42F0E99D42E7
:10046300F0E89C45F022E8600FECC313FCED13FDAC
:10047300EE13FEEF13FFD8F122EC8EF0A4CCC5F0FF
:10048300CCCDF8EFA4CEC5F02DFDE43CFCE8A42EC2
:10049300C8C5F03DFDE43CFCEFA4FFE5F028FEE415
:1004A3003DFDE43CFC22C205750C01750DF4750E8F
:1004B30000750F14120B5FD2B475C802C2A2D2AF7B
:1004C300120D49120B2A120968208209300506C24F
:1004D30005D206800E208209200506D205D20680A9
:1004E30002C2063005030205BBE51124FFFFE51038
:1004F30034FFFE7C007D14120354EF24F1FDEE342F
:10050300FFFCE4FFFE120D05C3EF9508F528F52760
:10051300E51124FFFFE51034FFFE7C007D14120378
:1005230054EF2401FDE43EFCE5282410FFE433FEF0
:10053300120CF2C3E5279FEE6480F8748098508311
:10054300E4FBE52775F014A4FFEB7C002FFFEC35EB
:10055300F0FEC3EF9511E5106480F8EE64809840D7
:100563000E741C2BF582E43402F583E4F08027E556
:100573000B2FFFE50A3EFE7C027D08120354741420
:100583002DF58274003CF583E0FF741C2BF582E4A7
:100593003402F583EFF00BBB14A8C3E52795287548
:1005A300F008A4FD75310175320275331CE4FBFFBD
:1005B3001209BF05270205132005030204C6120C06
:1005C300CA7BFF7A0D79A27D017F2E120BBF020435
:1005D300C68F2C8E2B8D2A8C29E47F99FEFDFCABD4
:1005E3002CAA2BA92AA829D31204585006752D0129
:1005F30002069DE47F797E0AFDFCAB2CAA2BA92A77
:10060300A829C31204584014E47FA57E0BFDFCA85F
:1006130029D31204585005752D02807EE47F4F7E46
:1006230009FDFCAB2CAA2BA92AA829C31204584004
:1006330014E47F7B7E0AFDFCA829D31204585005DD
:10064300752D038055E47FDC7E05FDFCAB2CAA2BC6
:10065300A92AA829C31204584014E47F087E07FD81
:10066300FCA829D31204585005752D04802CE47F6F
:10067300267E07FDFCAB2CAA2BA92AA829C31204AA
:10068300584014E47F527E08FDFCA829D312045875
:100693005005752D058003E4F52DAF2D228F358D83
:1006A300368B37AB38AA39A93A1202B9700302075D
:1006B30062F53BC3648094A04009D3E53B64809416
:1006C300FE4003753B20E536D394784002807CAF2F
:1006D3003BEF3395E0FE75F064E537A42FF582E533
:1006E300F03EF583E58224A6F582E583340DF58398
:1006F300E493F9E536131313541F2535FDF8C000B1
:10070300E6FA08E6FBE5365407FCE47EFFA8040896
:100713008005CEC313CE13D8F9F4FFEEF45AFEEBE3
:100723005FD000A60608F6A805C000E6FA08E6FBB7
:10073300E9FEE4A804088005CEC313CE13D8F9FF5D
:10074300EA4EFEEB4FD000A60608F67401253AF5F3
:100753003AE43539F53974062536F5360206A6220C
:10076300C0E0C0F0C083C082C0D075D000C000C05C
:1007730001C002C003C004C005C006C00775A7209E
:10078300E5F854F0F4440F52F8AF9BEF30E34DE536
:10079300126031E5A120E02C300113851682851506
:1007A30083E5A3F00516E51670070515800385A3F9
:1007B30026D5120D300305300002D2FA120CDE806A
:1007C30003851214E513601430F911300209A817D8
:1007D300E2F5A30517800375A3001513D007D00610
:1007E300D005D004D003D002D001D000D0D0D08225
:1007F300D083D0F0D0E032787FE4F6D8FD75816005
:100803000208410204A9E493A3F8E493A34003F686
:100813008001F208DFF48029E493A3F85407240C41
:10082300C8C333C4540F4420C8834004F456800122
:1008330046F6DFE4800B010204081020408090009C
:1008430076E47E019360BCA3FF543F30E509541F57
:10085300FEE493A360010ECF54C025E060A840B826
:10086300E493A3FAE493A3F8E493A3C8C582C8CAA4
:10087300C583CAF0A3C8C582C8CAC583CADFE9DE77
:10088300E780BEC0E0C0F0C083C082C0D075D00096
:10089300C000C004C005C006C007209404D29480E1
:1008A30002C29430984BC298E50B2511FFE50A3537
:1008B30010FE7C027D0812035474142DF58274001B
:1008C3003CF583E599F0C3E5119407E51064809442
:1008D30082500A0511E51170CA051080C6E50F257F
:1008E3000BF50BE50E350AF50A850C10850D118005
:1008F300B2D007D006D005D004D000D0D0D082D05B
:1009030083D0F0D0E032C0E0C0F0C083C082C0D05A
:1009130075D000C000C001C002C003C004C005C040
:1009230006C00753C87F53C8FBE51AB40112751AF2
:10093300027F00851B257B02E4FDFC120A11800A5D
:10094300E51AB40305C2A6751A00D007D006D00570
:10095300D004D003D002D001D000D0D0D082D08335
:10096300D0F0D0E032BF020AE50960060508C2965E
:100973008011BF040AE5096006C29615088004D2F7
:1009830096D295EF7F0070027F018F09E51124FF56
:10099300FFE51034FFFE7C007D14120354EF24F1B5
:1009A300FDEE34FFFCAF08EF3395E0FE120CF2AC22
:1009B30006AD07E4FFFE120D058F08228F2E8D2F43
:1009C3008B30E4F5347F5185313885323985333ABC
:1009D300AB34AD2E1206A0E52F2534FF7B007A0041
:1009E3007951120AA70534E534C3940840D7E5309A
:1009F3006017AB31AA32A933120BE9E52E2FFDE5BF
:100A03002F2408FBAF2E120C4E7F51020D64852557
:100A1300128525138525148F178C158D16EB1392CC
:100A230001EBA2E19202AFA775A720200403120DE8
:100A330018439A0453F80F539BEF439A0830030566
:100A4300300002C2FA30F915E5136011300209A82B
:100A530017E2F5A305178003E4F5A315138FA72267
:100A6300C2D5E830E70FB2D5E4C39BFBE49AFAE4BE
:100A730099F9E498F8EC30E717B2D5120A99120302
:100A8300C6E4C39BFBE49AFAE499F9E498F880037B
:100A93001203C630D50DE4C39FFFE49EFEE49DFD23
:100AA300E49CFC228F368B378A3889397F80120C7D
:100AB3000E8F3AE53604FF120B938F3BE4FFAB37FF
:100AC300AA38A9398F827583001202D2FE743C2F93
:100AD300F8A6060FBF10E7E4F54CF54DFB7A007955
:100AE3003A7D14020AE98B4E8A4F8950E51A70FC4D
:100AF300751A018D1BE4FFEFC39D5018AB4EAA4F2F
:100B0300A9508F827583001202D2FE74002FF8EE73
:100B1300F20F80E3AFA7E4F5A775CFFF75CEF4D24C
:100B2300A643C8048FA722D2EC30EDFDC2EDAFBDC2
:100B3300AEBE7C0C7DE412047CE4FB7A04F9F8126B
:100B430003C6E47B04FAF9F81203C6EF2401FFE4B9
:100B53003EFEE43DFDE43CFC1205D42285A72912A8
:100B63000D70120DB4120D7A120D8412002E120D97
:100B73008E120D39120DC2120DAB120CB4120C856C
:100B8300120D98120D57120026120DBB8529A722AC
:100B9300EF540FC454F0FEEF54F0C4540F4EFF54FF
:100BA3003325E025E0FEEF54CC1313543F4EFF549E
:100BB3005525E0FEEF54AAC3134EFF228F298D2A39
:100BC3008B2B8A2C892D120BE9C374809FFFE4942D
:100BD30000C313EF13FF852B31852C32852D33ABE7
:100BE3002AAD290209BF8B358A368937E4FFAB3535
:100BF300AA36A937AE070F8E827583001202D27010
:100C0300ED1FEF75F006A42402FF228F4E120C9EF7
:100C1300C3EF9519FDEE9518FCD3ED94C8EC940041
:100C23004007434E408E188F19AF4E22AB07AA06DA
:100C3300120C9E8F828E83120C9EC3EF9582FFEE61
:100C43009583FEC3EF9BEE9A40ED228B35AE05AD47
:100C5300077F51AB061200037B007A007951AF3551
:100C6300120AA77F51020D64ED131313541F2FF9BA
:100C7300ED5407FF7480A807088002C313D8FC470C
:100C8300F722E59154045391FB7595F87594067515
:100C930093F8759206439104429122AFA775A7106A
:100CA30053E67FAD1DAC1C43E6808FA7AE04AF05B2
:100CB30022AF885388AF758C01758D96EF5440FE33
:100CC300EF54104E428822E4F529E4FDAF291200C7
:100CD300360529E529C3948040F022751A03AFA78E
:100CE300E4F5A775CFFF75CEFC43C8048FA722C3D5
:100CF300EF9DEC6480F8EE648098500122AE04AF5F
:100D03000522D3EF9DEC6480F8EE648098400122C5
:100D1300AE04AF0522E5A1A2E69203E5F8540C2444
:100D2300FF9200D20422C0E053917F051DE51D70A0
:100D330002051CD0E03275BB0D75DF2375BC087549
:100D4300B98143E88022C2A6D2B47F0A7E00120C86
:100D53002F020CCA75A20B43A14053F8F343F801C9
:100D630022E4FEEF2EF8E4F60EBE10F722E4F5A718
:100D73007597DE7597AD2275A50175F27F75D580E0
:100D83002275A64975A72075CC0922E4F5A775E35A
:100D93004075E10322758E0A7589224388502247E4
:100DA3004F44204D4F444500E4F5A9E5A930E7FB46
:100DB3002275A45075D40F2275E68275A8F02275AA
:100DC300D180220020505020C060601040000000FD
:100DD300000000702070F810F830F8707000000800
:100DE3000080707070F070E0F8F870887038888058
:100DF300888870F070F078F88888888888F87000A0
:100E030070200040008000080030008020108060C7
:100E1300000000000000004000000000000030203F
:100E2300600000000000000020505078C89020208F
:100E3300202020000000008860881030804008884F
:100E4300886060100040880888888890808088883F
:100E530020109080D888888888888020888888880F
:100E63008808400010500020008000080048788067
:100E7300000080200000000000000040000000008F
:100E83000000402010400000000000002050F880C7
:100E930010A0404010A8200000000898200820500F
:100EA300F080108888606020F8200808888880888F
:100EB300808080882010A080A8C8888888888020A7
:100EC30088888850881040801088001070B070683F
:100ED300704088B060309020D0B070F068B070E09F
:100EE3008888888888F8402010A800000000000047
:100EF30020005070204000401070F800F80010A847
:100F03002010109008F02070780000400010106846
:100F130088F08088F0F0B8F82010C080A8A888F086
:100F230088F070208888A8205020404010000000DE
:100F330008C8809888E088C82010A020A8C888889E
:100F430098C8804088888850881080200810000046
:100F5300000000000000F80840A8004010A820602E
:100F6300000020C8202008F8088840880860602016
:100F7300F82020A8F8888088808088882010A080A6
:100F830088988880A8A008208888A85020404020FE
:100F93001000000078888088F84078882010C020EE
:100FA300A88888F0788070408888A820782040201E
:100FB3001000000000000000000050F09890002096
:100FC30020202020006040882040881088884088A6
:100FD30010602010004000A888888890808088884E
:100FE3002090908088888880909008208850A888D6
:100FF300208040101000000088888888804008887E
:101003002090A02088888880088008489850A8509D
:101013000840402010000000000000002000502085
:1010230018680010400000400060807070F8701075
:1010330070704070600040080080207088F070E09D
:10104300F8807088706088F8888870806888F020DD
:101053007020508820F870087000FC0078F07078D9
:101063007040708870609070888870800880F0305D
:101073006820508870F830206000000000000000F5
:10108300000000000000000000000000000000005D
:10109300000000000000000000000000000000004D
:1010A300000000000000000000000000000000003D
:1010B300000000000000000000000000000000002D
:1010C300000000000000000000000000000000001D
:1010D300000000000000000000000000000000000D
:1010E300000000003810387C087C187C3838000079
:1010F3004430440818402004444430004C10041089
:1011030028784008444430005410080848047810F4
:10111300383C0000641010047C0444204404300074
:1011230044102044084444204408300038387C38B4
:1011330008383820383000000000000000000000AC
:10114300000000000000000000000000000000009C
:10115300000000000000000000000000000000008C
:10116300000000000000000000000000000020104C
:10117300204020000000106C82820000000000006C
:10118300FE00000000000082826C1000000022328A
:101193002A26220000003C0A0A0A3000000022141A
:1011A3000814220000003C020C023C00000038043A
:1011B3000204380000003E0402023C000000040266
:1011C30022FC20000000042A2A2A1200000010201A
:1011D30020103E0000003E182828100000001028B0
:1011E30028283E0000001C2222221C0000001E2092
:1011F30020103E0000001E2018203E0000000002C8
:10120300FE820000000000221408FE00000000BC63
:101213002202040000000002BE22000000001E2083
:101223002010FE0000007C4A4A4A30000000408043
:10123300907E10000000182A2A2A1C000000FE12CB
:1012430022221C000000042222221C0000001C2277
:101253002212FE0000001E2A2A2A04000000002099
:101263004080000000000202020202000000204051
:1012730080402000000000FE828200000000020483
:10128300081020000000008282FE00000000C2A2BD
:10129300928A86000000E0100E10E0000000C628CD
:1012A3001028C6000000FC021C02FC000000F80429
:1012B3000204F8000000FC020202FC00000080802F
:1012C300FE80800000008C92929262000000629483
:1012D3009890FE0000007A848A827C00000060906F
:1012E3009090FE0000007C8282827C000000FE0859
:1012F3001020FE000000FE403040FE00000002020D
:101303000202FE00000082442810FE00000080FC60
:101313008202040000000082FE8200000000FE1032
:101323001010FE0000005C9292827C00000080900E
:101333009090FE00000082929292FE0000003844DA
:101343008282FE000000448282827C0000006C9254
:101353009292FE0000007E8888887E0000007C82D6
:101363009E920C00000060908A80400000000010F4
:1013730028448200000028282828280000008244EE
:1013830028100000000000006C6A0000000000004C
:101393006C6C0000000078949292600000006C92E4
:1013A30092926C000000C0A0908E800000000C920E
:1013B30092523C0000009CA2A2A2E400000008FE9E
:1013C3004828180000008CD2A28284000000629298
:1013D3008A86420000000002FE42000000007CA258
:1013E300928A7C0000002010080402000000000024
:1013F300060600000000101010101000000000008E
:101403000C0A0000000010107C10100000002810CF
:101413007C10280000000038448200000000008295
:101423004438000000000000C0A0000000000A448F
:10143300AA926C000000462610C8C400000048545D
:10144300D6542400000028FE28FE2800000000E0F7
:1014530000E0000000000000F200000000000000B7
:0314630000000086
:00000001FF
