:020000040000FA
:10000000020386AB07AA061207FE8F828E831207B1
:10001000FEC3EF9582FFEE9583FEC3EF9BEE9A4001
:02002000ED22CF
:0700230002041243981022B1
:07002B00020493759C1022F2
:100033000202EF8F288D29E52960057529FF8003CA
:10004300E4F5297F801207858F2AE52804FF12062D
:10005300C38F2BE4FF742C2FF8A6290FBF10F6E4EF
:0E006300F53CF53DFB7A00792A7D140206205B
:10007300020874BB010689828A83E0225002E722C8
:10008300BBFE02E32289828A83E49322BB010CE54F
:100093008229F582E5833AF583E0225006E9258239
:1000A300F8E622BBFE06E92582F8E222E58229F57D
:1000B30082E5833AF583E49322BC000BBE0029EF6B
:1000C3008DF084FFADF022E4CCF875F008EF2FFF3C
:1000D300EE33FEEC33FCEE9DEC984005FCEE9DFE0A
:1000E3000FD5F0E9E4CEFD22EDF8F5F0EE8420D251
:1000F3001CFEADF075F008EF2FFFED33FD400798C0
:100103005006D5F0F222C398FD0FD5F0EA22C2D5EE
:10011300EC30E709B2D5E4C39DFDE49CFCEE30E787
:1001230015B2D5E4C39FFFE49EFE1200BCC3E49D59
:10013300FDE49CFC80031200BC30D507C3E49FFFA1
:10014300E49EFE2275F008758200EF2FFFEE33FE6A
:10015300CD33CDCC33CCC58233C5829BED9AEC999C
:10016300E58298400CF582EE9BFEED9AFDEC99FC3E
:100173000FD5F0D6E4CEFBE4CDFAE4CCF9A8822285
:10018300B800C1B90059BA002DEC8BF084CFCECDA5
:10019300FCE5F0CBF97818EF2FFFEE33FEED33FDDE
:1001A300EC33FCEB33FB10D703994004EB99FB0FC3
:1001B300D8E5E4F9FA227818EF2FFFEE33FEED339A
:1001C300FDEC33FCC933C910D7059BE99A4007EC12
:1001D3009BFCE99AF90FD8E0E4C9FAE4CCFB227559
:1001E300F010EF2FFFEE33FEED33FDCC33CCC833ED
:1001F300C810D7079BEC9AE899400AED9BFDEC9A4F
:10020300FCE899F80FD5F0DAE4CDFBE4CCFAE4C8C6
:10021300F9228E338F348D358B36AB37AA38A93913
:1002230012007670030202EEF53AC3648094A04094
:1002330009D3E53A648094FE4003753A20E535D34B
:10024300947840030202DAAF3AEF3395E0FE75F09B
:1002530064E536A42FF582E5F03EF583E58224D5E7
:10026300F582E5833408F583E493FDE53513131331
:10027300541F2534F53CE43533F53B853C82F58347
:10028300C083C082E5355407FCE47EFFA8040880E0
:1002930005CEC313CE13D8F9F4FFEEF4FEE05EFEF1
:1002A300A3E05FFFD082D083EEF0A3EFF0853C8222
:1002B300853B83C083C082EDFEE4A804088005CE9D
:1002C300C313CE13D8F9FFE04EFEA3E04FFFD08255
:1002D300D083EEF0A3EFF074012539F539E4353816
:1002E300F53874062535F53502021D22C0E0C0F04D
:1002F300C083C082C0D075D000C000C001C002C09E
:1003030003C004C005C006C00775A720E5F854F074
:10031300F4440F52F8AF9BEF30E34DE5086031E54D
:10032300A120E02C300113850C82850B83E5A3F01B
:10033300050CE50C7007050B800385A326D5080D76
:10034300300305300002D2FA12083E800385080A02
:10035300E509601430F911300209A80DE2F5A3058F
:100363000D800375A3001509D007D006D005D0046E
:10037300D003D002D001D000D0D0D082D083D0F02F
:10038300D0E032787FE4F6D8FD75814E0203CD02CA
:1003930007C7E493A3F8E493A34003F68001F208AC
:1003A300DFF48029E493A3F85407240CC8C333C4AF
:1003B300540F4420C8834004F456800146F6DFE41A
:1003C300800B0102040810204080900661E47E0146
:1003D3009360BCA3FF543F30E509541FFEE493A38D
:1003E30060010ECF54C025E060A840B8E493A3FA9F
:1003F300E493A3F8E493A3C8C582C8CAC583CAF02B
:10040300A3C8C582C8CAC583CADFE9DEE780BEC008
:10041300E0C0F0C083C082C0D075D000C000C0046B
:10042300C005C006C007209408D294D295D2968006
:1004330006C294C295C296309841C298E50F251121
:10044300FFE50E3510FE7C027D0812011174142D98
:10045300F58274003CF583E599F0C3E5119408E552
:100463001064809482500A0511E51170CA0510804A
:10047300C6050FE50F70C0050E80BCD007D006D0AF
:1004830005D004D000D0D0D082D083D0F0D0E032D9
:10049300C0E0C0F0C083C082C0D075D000C000C02F
:1004A30001C002C003C004C005C006C00753C87F13
:1004B30053C8FBE514B401127514027F008515259A
:1004C3007B02E4FDFC120548800AE514B40305C26F
:1004D300A6751400D007D006D005D004D003D002EF
:1004E300D001D000D0D0D082D083D0F0D0E0328FF2
:1004F3002C8D2D8B2EE4F5327E027F1C852F3785C4
:100503003038853139AB32AD2C120215E52D253249
:10051300FF7B017A02791C1205DE0532E532C394B2
:100523000840D5E52E6017AB2FAA30A93112071961
:10053300E52C2FFDE52D2408FBAF2C1207A67E0228
:100543007F1C02085285250885250985250A8F0DFC
:100553008C0B8D0CEB139201EBA2E19202AFA7750A
:10056300A720200403120863439A0453F80F539BF4
:10057300EF439A08300305300002C2FA30F915E55B
:10058300096011300209A80DE2F5A3050D8003E40B
:10059300F5A315098FA722C2D5E830E70FB2D5E43A
:1005A300C39BFBE49AFAE499F9E498F8EC30E71773
:1005B300B2D51205D0120183E4C39BFBE49AFAE49B
:1005C30099F9E498F8800312018330D50DE4C39FB1
:1005D300FFE49EFEE49DFDE49CFC228F348B358A70
:1005E3003689377F801207858F38E53404FF12067A
:1005F300C38F39E4FFAB35AA36A9378F82758300E1
:1006030012008FFE743A2FF8A6060FBF10E7E4F529
:100613004AF54BFB7A0079387D140206208B4C8A0D
:100623004D894EE51470FC7514018D15E4FFEFC37D
:100633009D5018AB4CAA4DA94E8F827583001200B2
:100643008FFE74002FF8EEF20F80E3AFA7E4F5A757
:1006530075CFFF75CEF4D2A643C8048FA72202122A
:10066300000001140001150002160000C100C103BF
:10067300C104C101C102010800010900010A00010E
:100683000D00020B0000020E0000021000000085A6
:10069300A72712089F1208DA1208A91208B312003A
:1006A3002E1208BD1208E81208D11208141207E529
:1006B3001208C71208921200261208E18527A72202
:1006C300EF540FC454F0FEEF54F0C4540F4EFF54D4
:1006D3003325E025E0FEEF54CC1313543F4EFF5473
:1006E3005525E0FEEF54AAC3134EFF228F278D2812
:1006F3008B298A2A892B120719C374809FFFE494DC
:1007030000C313EF13FF85292F852A30852B31ABC7
:1007130028AD270204F28B338A348935E4FFAB33E7
:10072300AA34A935AE070F8E8275830012008F702D
:10073300ED1FEF75F006A42402FF228F82ED131341
:1007430013541F2582F582E43EF583E0FFED540741
:10075300FE7480A806088002C313D8FC4FF0228ED3
:10076300348F35EDD39B4006AF03AB05AD07AC0526
:10077300ECD39B500CAD04AF35AE3412073E0C8066
:10078300EF228F4C1207FEC3EF9513FDEE9512FC7B
:10079300D3ED94C8EC94004007434C408E128F1362
:1007A300AF4C228B33AC05AD077E027F1CAB04122A
:1007B30007627B017A02791CAF331205DE7E027F6A
:1007C3001C020852120692D2B475C802C2A2D2AF5A
:1007D3001208847BFF7A0879EF7D017F2E1206EFE2
:1007E30080FEE59154045391FB7595F87594067555
:1007F30093F8759206439104429122AFA775A7100F
:1008030053E67FAD17AC1643E6808FA7AE04AF0562
:1008130022AF885388AF758C01758D96EF5440FED7
:10082300EF54104E428822E4F527E4FDAF2712006F
:10083300360527E527C3948040F022751403AFA73C
:10084300E4F5A775CFFF75CEFC43C8048FA722E458
:10085300FDEF2DF582E43EF583E4F00DBD10F222A9
:10086300E5A1A2E69203E5F8540C24FF9200D2041A
:1008730022C0E053917F0517E51770020516D0E0FB
:1008830032C2A6D2B47F0A7E0012000302082A7580
:10089300A20B43A14053F8F343F80122E4F5A775F3
:1008A30097DE7597AD2275A50175F27F75D5802208
:1008B30075A60975A72075CC0922E4F5A775E34051
:1008C30075E10322758E0A75892243885022E4F567
:1008D300A9E5A930E7FB2275A45075D40F2275E66C
:1008E3008075A8F02275BC1875B9842248656C6CB4
:1008F3006F000020505020C06060104000000000D6
:100903000000702070F810F830F8707000000800D4
:1009130080707070F070E0F8F870887038888088A4
:100923008870F070F078F88888888888F87000708C
:10093300200040008000080030008020108060000C
:1009430000000000000040000000000000302060B4
:100953000000000000000020505078C890202020A4
:1009630020200000000088608810308040088888BC
:10097300606010004088088888889080808888207C
:10098300109080D88888888888802088888888887C
:1009930008400010500020008000080048788000C4
:1009A3000080200000000000000040000000000064
:1009B30000402010400000000000002050F880108C
:1009C300A0404010A820000000089820082050F004
:1009D30080108888606020F82008088888808880D4
:1009E3008080882010A080A8C88888888880208874
:1009F300888850881040801088001070B07068702C
:100A03004088B060309020D0B070F068B070E0885B
:100A130088888888F8402010A80000000000002083
:100A2300005070204000401070F800F80010A8201B
:100A330010109008F02070780000400010106888B3
:100A4300F08088F0F0B8F82010C080A8A888F0885B
:100A5300F070208888A82050204040100000000833
:100A6300C8809888E088C82010A020A8C8888898E3
:100A7300C8804088888850881080200810000000B3
:100A83000000000000F80840A8004010A820600003
:100A93000020C8202008F80888408808606020F8F3
:100AA3002020A8F8888088808088882010A08088EB
:100AB300988880A8A008208888A85020404020104B
:100AC30000000078888088F84078882010C020A82B
:100AD3008888F0788070408888A82078204020108B
:100AE30000000000000000000050F098900020205B
:100AF300202020006040882040881088884088108B
:100B0300602010004000A888888890808088882012
:100B130090908088888880909008208850A88820AA
:100B23008040101000000088888888804008882052
:100B330090A02088888880088008489850A850088A
:100B4300404020100000000000000020005020184A
:100B5300680010400000400060807070F8701070F2
:100B6300704070600040080080207088F070E0F8EA
:100B7300807088706088F8888870806888F020703A
:100B830020508820F870087000FC0078F0707870AE
:100B930040708870609070888870800880F030683A
:100BA30020508870F8302060000000000000000032
:100BB3000000000000000000000000000000000032
:100BC3000000000000000000000000000000000022
:100BD3000000000000000000000000000000000012
:100BE3000000000000000000000000000000000002
:100BF30000000000000000000000000000000000F2
:100C030000000000000000000000000000000000E1
:020C13000000DF
:00000001FF
