:020000040000FA
:10000000020386AB07AA0612083D8F828E83120870
:100010003DC3EF9582FFEE9583FEC3EF9BEE9A40C2
:0A002000ED22220204124398102280
:03002B0002049339
:100033000202EF8F288D29E52960057529FF8003CA
:10004300E4F5297F8012078F8F2AE52804FF120623
:10005300F78F2BE4FF742C2FF8A6290FBF10F6E4BB
:0E006300F53CF53DFB7A00792A7D140206205B
:100073000208C8BB010689828A83E0225002E72274
:10008300BBFE02E32289828A83E49322BB010CE54F
:100093008229F582E5833AF583E0225006E9258239
:1000A300F8E622BBFE06E92582F8E222E58229F57D
:1000B30082E5833AF583E49322BC000BBE0029EF6B
:1000C3008DF084FFADF022E4CCF875F008EF2FFF3C
:1000D300EE33FEEC33FCEE9DEC984005FCEE9DFE0A
:1000E3000FD5F0E9E4CEFD22EDF8F5F0EE8420D251
:1000F3001CFEADF075F008EF2FFFED33FD400798C0
:100103005006D5F0F222C398FD0FD5F0EA22C2D5EE
:10011300EC30E709B2D5E4C39DFDE49CFCEE30E787
:1001230015B2D5E4C39FFFE49EFE1200BCC3E49D59
:10013300FDE49CFC80031200BC30D507C3E49FFFA1
:10014300E49EFE2275F008758200EF2FFFEE33FE6A
:10015300CD33CDCC33CCC58233C5829BED9AEC999C
:10016300E58298400CF582EE9BFEED9AFDEC99FC3E
:100173000FD5F0D6E4CEFBE4CDFAE4CCF9A8822285
:10018300B800C1B90059BA002DEC8BF084CFCECDA5
:10019300FCE5F0CBF97818EF2FFFEE33FEED33FDDE
:1001A300EC33FCEB33FB10D703994004EB99FB0FC3
:1001B300D8E5E4F9FA227818EF2FFFEE33FEED339A
:1001C300FDEC33FCC933C910D7059BE99A4007EC12
:1001D3009BFCE99AF90FD8E0E4C9FAE4CCFB227559
:1001E300F010EF2FFFEE33FEED33FDCC33CCC833ED
:1001F300C810D7079BEC9AE899400AED9BFDEC9A4F
:10020300FCE899F80FD5F0DAE4CDFBE4CCFAE4C8C6
:10021300F9228E338F348D358B36AB37AA38A93913
:1002230012007670030202EEF53AC3648094A04094
:1002330009D3E53A648094FE4003753A20E535D34B
:10024300947840030202DAAF3AEF3395E0FE75F09B
:1002530064E536A42FF582E5F03EF583E5822418A4
:10026300F582E5833409F583E493FDE53513131330
:10027300541F2534F53CE43533F53B853C82F58347
:10028300C083C082E5355407FCE47EFFA8040880E0
:1002930005CEC313CE13D8F9F4FFEEF4FEE05EFEF1
:1002A300A3E05FFFD082D083EEF0A3EFF0853C8222
:1002B300853B83C083C082EDFEE4A804088005CE9D
:1002C300C313CE13D8F9FFE04EFEA3E04FFFD08255
:1002D300D083EEF0A3EFF074012539F539E4353816
:1002E300F53874062535F53502021D22C0E0C0F04D
:1002F300C083C082C0D075D000C000C001C002C09E
:1003030003C004C005C006C00775A720E5F854F074
:10031300F4440F52F8AF9BEF30E34DE5086031E54D
:10032300A120E02C300113850C82850B83E5A3F01B
:10033300050CE50C7007050B800385A326D5080D76
:10034300300305300002D2FA120892800385080AAE
:10035300E509601430F911300209A80DE2F5A3058F
:100363000D800375A3001509D007D006D005D0046E
:10037300D003D002D001D000D0D0D082D083D0F02F
:10038300D0E032787FE4F6D8FD75814E0203CD02CA
:100393000809E493A3F8E493A34003F68001F20869
:1003A300DFF48029E493A3F85407240CC8C333C4AF
:1003B300540F4420C8834004F456800146F6DFE41A
:1003C300800B0102040810204080900695E47E0112
:1003D3009360BCA3FF543F30E509541FFEE493A38D
:1003E30060010ECF54C025E060A840B8E493A3FA9F
:1003F300E493A3F8E493A3C8C582C8CAC583CAF02B
:10040300A3C8C582C8CAC583CADFE9DEE780BEC008
:10041300E0C0F0C083C082C0D075D000C000C0046B
:10042300C005C006C007209408D294D295D2968006
:1004330006C294C295C296309841C298E50F251121
:10044300FFE50E3510FE7C027D0812011174142D98
:10045300F58274003CF583E599F0C3E5119408E552
:100463001064809482500A0511E51170CA0510804A
:10047300C6050FE50F70C0050E80BCD007D006D0AF
:1004830005D004D000D0D0D082D083D0F0D0E032D9
:10049300C0E0C0F0C083C082C0D075D000C000C02F
:1004A30001C002C003C004C005C006C00753C87F13
:1004B30053C8FBE514B401127514027F008515259A
:1004C3007B02E4FDFC120548800AE514B40305C26F
:1004D300A6751400D007D006D005D004D003D002EF
:1004E300D001D000D0D0D082D083D0F0D0E0328FF2
:1004F3002C8D2D8B2EE4F5327E027F1C852F3785C4
:100503003038853139AB32AD2C120215E52D253249
:10051300FF7B017A02791C1205DE0532E532C394B2
:100523000840D5E52E6017AB2FAA30A93112072357
:10053300E52C2FFDE52D2408FBAF2C1207B07E021E
:100543007F1C0208A685250885250985250A8F0DA8
:100553008C0B8D0CEB139201EBA2E19202AFA7750A
:10056300A7202004031208B7439A0453F80F539BA0
:10057300EF439A08300305300002C2FA30F915E55B
:10058300096011300209A80DE2F5A3050D8003E40B
:10059300F5A315098FA722C2D5E830E70FB2D5E43A
:1005A300C39BFBE49AFAE499F9E498F8EC30E71773
:1005B300B2D51205D0120183E4C39BFBE49AFAE49B
:1005C30099F9E498F8800312018330D50DE4C39FB1
:1005D300FFE49EFEE49DFDE49CFC228F348B358A70
:1005E3003689377F8012078F8F38E53404FF120670
:1005F300F78F39E4FFAB35AA36A9378F82758300AD
:1006030012008FFE743A2FF8A6060FBF10E7E4F529
:100613004AF54BFB7A0079387D140206208B4C8A0D
:100623004D894EE51470FC7514018D15E4FFEFC37D
:100633009D5018AB4CAA4DA94E8F827583001200B2
:100643008FFE74002FF8EEF20F80E3AFA7E4F5A757
:1006530075CFFF75CEF4D2A643C8048FA72285A712
:10066300271208F31209241208FD120907120022A7
:1006730012091112092B12091B1208531208241212
:1006830007ED1208691208E61200261207D1852722
:10069300A722021200000114000115000216000037
:1006A300C100C103C104C101C10201080001090065
:1006B300010A00010D00020B0000020E00000210EF
:1006C3000000008F278D288B298A2A892B12072364
:1006D300C374809FFFE49400C313EF13FF85292F96
:1006E300852A30852B31AB28AD271204F27E027F99
:1006F3001C0208A6EF540FC454F0FEEF54F0C45488
:100703000F4EFF543325E025E0FEEF54CC13135472
:100713003F4EFF545525E0FEEF54AAC3134EFF226C
:100723008B338A348935E4FFAB33AA34A935AE075A
:100733000F8E8275830012008F70ED1FEF75F00628
:10074300A42402FF228F82ED131313541F2582F575
:1007530082E43EF583E0FFED5407FE7480A80608AB
:100763008002C313D8FC4FF0228E348F35EDD39B18
:100773004006AF03AB05AD07AC05ECD39B500CAD06
:1007830004AF35AE341207480C80EF228F4C1208A9
:100793003DC3EF9513FDEE9512FCD3ED94C8EC9495
:1007A300004007434C408E128F13AF4C228B33AC67
:1007B30005AD077E027F1CAB0412076C7B017A0236
:1007C300791CAF331205DE7E027F1C0208A675E694
:1007D3008075A71075BB8275ED04E4F5A775A8F0C5
:1007E30075B81075A71075F2102275A710E5985407
:1007F300045398FB75A5FE75A46875A3FE75A268DE
:10080300439804429822120661D2B4C2A2D2AF1214
:1008130008D87BFF7A0979327D017F2E1206C680C4
:10082300FEE59154045391FB7595F8759406759301
:10083300F8759206439104429122AFA775A710530E
:10084300E67FAD17AC1643E6808FA7AE04AF052253
:10085300AF885388AF758C01758D96EF5440FEEFCA
:1008630054104E428822E4F5A7758E0A75A71075B9
:10087300A601F5A775892243885022E4F527E4FDF4
:10088300AF271200360527E527C3948040F0227571
:100893001403AFA7E4F5A775CFFF75CEFC43C804D7
:1008A3008FA722E4FDEF2DF582E43EF583E4F00DFE
:1008B300BD10F222E5A1A2E69203E5F8540C24FF51
:1008C3009200D20422C0E053917F0517E51770020E
:1008D3000516D0E032C2A6D2B47F0A7E001200030E
:1008E30002087E75A20B43A14053F8F343F801229B
:1008F300E4F5A77597DE7597AD2275A50175F27FAF
:1009030075D5802275A60975A72075CC0922E4F553
:10091300A775E34075E10322E4F5A9E5A930E7FBF8
:100923002275A45075D40F2275BC1875B98422485A
:10093300656C6C6F000020505020C0606010400058
:100943000000000000702070F810F830F87070009C
:1009530000080080707070F070E0F8F870887038EC
:100963008880888870F070F078F88888888888F89C
:1009730070007020004000800008003000802010CC
:100983008060000000000000004000000000000044
:100993003020600000000000000020505078C89014
:1009A3002020202020000000008860881030804034
:1009B3000888886060100040880888888890808054
:1009C300888820109080D8888888888880208888A4
:1009D30088888808400010500020008000080048E4
:1009E300788000008020000000000000004000002C
:1009F30000000000402010400000000000002050D4
:100A0300F88010A0404010A820000000089820089B
:100A13002050F080108888606020F82008088888BB
:100A23008088808080882010A080A8C888888888D3
:100A3300802088888850881040801088001070B00B
:100A43007068704088B060309020D0B070F068B0AB
:100A530070E08888888888F8402010A8000000008B
:100A6300000020005070204000401070F800F80093
:100A730010A82010109008F020707800004000109B
:100A8300106888F08088F0F0B8F82010C080A8A81B
:100A930088F088F070208888A820502040401000FB
:100AA300000008C8809888E088C82010A020A8C843
:100AB300888898C8804088888850881080200810CB
:100AC3000000000000000000F80840A8004010A843
:100AD3002060000020C8202008F8088840880860AB
:100AE3006020F82020A8F8888088808088882010DB
:100AF300A08088988880A8A008208888A8502040D3
:100B030040201000000078888088F8407888201002
:100B1300C020A88888F0788070408888A820782032
:100B230040201000000000000000000050F09890EA
:100B330000202020202000604088204088108888E2
:100B4300408810602010004000A88888889080802A
:100B5300888820909080888888809090082088508A
:100B6300A888208040101000000088888888804072
:100B730008882090A020888888800880084898509A
:100B8300A850084040201000000000000000200092
:100B9300502018680010400000400060807070F81A
:100BA300701070704070600040080080207088F002
:100BB30070E0F8807088706088F888887080688832
:100BC300F0207020508820F870087000FC0078F046
:100BD300707870407088706090708888708008802A
:100BE300F0306820508870F830206000000000006A
:100BF30000000000000000000000000000000000F2
:100C030000000000000000000000000000000000E1
:100C130000000000000000000000000000000000D1
:100C230000000000000000000000000000000000C1
:100C330000000000000000000000000000000000B1
:100C430000000000000000000000000000000000A1
:050C530000000000009C
:00000001FF
