:020000040000FA
:10000000020026024D0000024F0000010C00010A10
:1000100000010B0001080101090000E4F5A9F5A9A0
:0100200022BD
:1000230002013D787FE4F6D8FD75815102006D022F
:100033000212E493A3F8E493A34003F68001F208C9
:10004300DFF48029E493A3F85407240CC8C333C412
:10005300540F4420C8834004F456800146F6DFE47D
:10006300800B0102040810204080900003E47E010D
:100073009360BCA3FF543F30E509541FFEE493A3F0
:1000830060010ECF54C025E060A840B8E493A3FA02
:10009300E493A3F8E493A3C8C582C8CAC583CAF08E
:1000A300A3C8C582C8CAC583CADFE9DEE780BEC26A
:1000B300D5EC30E709B2D5E4C39DFDE49CFCEE30FA
:1000C300E715B2D5E4C39FFFE49EFE1200E8C3E444
:1000D3009DFDE49CFC80031200E830D507C3E49F38
:1000E300FFE49EFE22BC000BBE0029EF8DF084FFCF
:1000F300ADF022E4CCF875F008EF2FFFEE33FEEC01
:1001030033FCEE9DEC984005FCEE9DFE0FD5F0E927
:10011300E4CEFD22EDF8F5F0EE8420D21CFEADF026
:1001230075F008EF2FFFED33FD4007985006D5F02B
:10013300F222C398FD0FD5F0EA22C0E0C0F0C083DD
:10014300C082C0D075D000C000C004C005C006C0C6
:1001530007209404D2948002C294309841C298E557
:100163004E2550FFE54D354FFE7C027D081200B24F
:1001730074002DF58274003CF583E599F0C3E550D6
:100183009408E54F64809482500A0550E55070CA84
:10019300054F80C6054EE54E70C0054D80BCD007A7
:1001A300D006D005D004D000D0D0D082D083D0F0F8
:1001B300D0E03285A75112021F1201EE1202001283
:1001C300022912023312001B1201DB12023D12023A
:1001D3004712024B8551A722AF885388AF758D967E
:1001E300EF5440FEEF54104E4288227580FF75A4F1
:1001F3001075F1FFE4F5D4F5FE75FDFF227590FF50
:10020300E4F5A575F27F75D5F0F5EE75EDFF2212D5
:1002130001B6C2B4D2A2D2AFC2A280FEE4F5A775E2
:1002230097DE7597AD2275A60D75A72075CC0922AB
:10023300E4F5A775E34075E10122758E0875892001
:0C024300438840224398102275A8102226
:00000001FF
